:020000040001F9
:10B00000103A002041B101005BB10100F5F80100E8
:10B010000000000000000000000000000000000030
:10B02000000000000000000000000000D5B001009A
:10B03000000000000000000001B1010063B1010048
:10B040002D25020081250200412A02000D28020060
:10B0500045280200000000004DF00100D9BC0100AD
:10B060005129020069290200812902001D260200DF
:10B0700065B10100D525020065B1010065B101008F
:10B08000952B02003126020065B1010065B1010077
:10B090005928020065B1010065B1010065B10100E8
:10B0A00065B1010065B10100000000000000000072
:10B0B0000000000000000000000000000000000090
:10B0C0000348854600F08EFD004800470144020019
:10B0D000103A00200848006880F30888174B196868
:10B0E0000868203080F30988022080F314883FBC70
:10B0F000AE4662B600BD000000B0010000000000D6
:10B10000EFF309800D4B1A6820381060F0C04446F8
:10B110004D4656465F46F0C008B50DF0F5FE0CBC36
:10B12000116808681030F0C8A046A946B246BB4670
:10B1300080F309882038F0C8184700007402002006
:10B140000321094802680A430260084802680A436A
:10B1500002600748804707480047FEE7FEE7FEE732
:10B16000FEE7FEE7FEE7000024050040540500402E
:10B17000B1280200C1B0010030B50B4601460020E5
:10B180002022012409E00D46D5409D4205D31D46ED
:10B190009540491B2546954040191546521E002DE5
:10B1A000F1DC30BD70B500242546002801DA012409
:10B1B0004042002901DA01254942FFF7DDFFAC4298
:10B1C00000D04042002C00D0494270BDF0B51FB401
:10B1D0000646002082B005464024019100901BE005
:10B1E000019922460F46304600F018FC049A059B50
:10B1F000801A994110D310461946224600F0FEFBF2
:10B20000361A8F410197224601200021009F00F04D
:10B21000F5FB38184D4100902046641E0028DFDC05
:10B22000019B00982946324607B0F0BD10B502498F
:10B2300000F004F810BD00001839002070B50C466D
:10B2400000683C21FFF798FF21603C21FFF794FF45
:10B2500061601821FFF790FF0546A1600721001DDE
:10B26000FFF78AFFA1610F48A90008180E49FFF7F0
:10B2700083FF0246443288086261E0613B2802D3C2
:10B28000910700D0401C0021084B0A462161995CBF
:10B29000814203D8401A521C2261F8E7401CE0604A
:10B2A000204670BD6C0B0000B505000040A10200F7
:10B2B00038B50446C0681821401E4843A1684018AC
:10B2C0003C214843616840183C21484321684518A7
:10B2D00060690C214843216940186921C900401A5E
:10B2E0003021FFF75FFF114A504342190846009290
:10B2F0001A2902DB0E49511800910C21FFF752FF69
:10B300000C4A5043009A801800900B4806E0491EF2
:10B31000425C074B5A43009BD21800920029F6DC8E
:10B3200021466846FFF78AFF009838BD801F8607D0
:10B33000805101008033E1014CA1020003460B4320
:10B340009B0703D009E008C9121F08C0042AFAD2DB
:10B3500003E00B780370401C491C521EF9D2704761
:10B36000D2B201E00270401C491EFBD2704700229D
:10B37000F6E710B513460A4604461946FFF7F0FFF4
:10B38000204610BD421E5378521C002BFBD10B7877
:10B390001370491C521C002BF9D1704730B505467B
:10B3A0002A460B4610781C78521C5B1C002801D0E2
:10B3B000A042F7D0002C03D0002802D06D1CEFE78C
:10B3C000284630BD421C0178401C0029FBD1801A60
:10B3D000704703460A780270401C491C002AF9D1C4
:10B3E000184670470321001D401E037812021A43BD
:10B3F000491EF9D510467047F8B502464A40D40FA9
:10B4000042004B0052085B089A4202D202460846AC
:10B4100011464A0023D0C30D4A00DDB2120EAD1A08
:10B42000202D35DA49020126490AF6058A19002C31
:10B4300000D0524220214F1B1146B9402A4110181A
:10B44000C20D9A4221D0002C17D0012D08DCDA055C
:10B45000801AD20F8019D207DBB200F00BFBF8BDC7
:10B46000DA05801A012340001B06C01880185A42D2
:10B470008018CA0F1043490007E04908C20711436A
:10B48000DA05801A80194008801800F0EBFAF8BD40
:10B4900061000122511A001BF7E70122D207514037
:10B4A000AAE70122D2075040A6E7024670B54A40FB
:10B4B000D30FDB0740002DD04A002AD0010E140E16
:10B4C000000212020919400A520A8418E5010446D2
:10B4D0005443000A120A2E045043A4194219200CA6
:10B4E000C543AA18120C0125AD03521C52191204AF
:10B4F0007F39240400D0521C104301D44000491E5F
:10B50000C2B20C06C0092018401C4008802A02D094
:10B5100003E0002070BD40084000002900DA002050
:10B52000184370BD70B502464A40D50F40004A002E
:10B53000ED0740085208002814D0002A12D0C40D8C
:10B54000D30D41020120C0055202490A520AE41AF1
:10B55000091812187D34914201D3641C00E049009F
:10B56000002C01DA002070BD0023914201D3891A1A
:10B570000343400849000028F7D100290AD091422E
:10B5800002D10121C90705E0914201D2012101E068
:10B590000121C943E005C018401900F063FA70BDED
:10B5A000F0B507460846584087B0C00F04904800E1
:10B5B0000E46590040084908BC1A884105D2384651
:10B5C00031461E4617460B460246580040081043B7
:10B5D0004CD0300D039040055900400D490D0590A9
:10B5E000401A0290402872DA18030121000B090565
:10B5F0000843019004980092002805D00199524216
:10B600000020884100920190029840210A1A019975
:10B61000009800F0F3F905460C466B4607CB00F0A6
:10B620000EFAC0197141039A0E0D0023D717564028
:10B630001A467A40164344D0049A002A2DD0029A22
:10B64000012A039A15DC1205C01A9141012636051C
:10B65000001C7141D20F059ED20700930192029601
:10B660002A46234600F04CFA07B0F0BD3846314672
:10B67000FAE71605224A0F46B218C01AB74101214F
:10B680000905001C4F4100187F41114618187941E7
:10B69000E20F10436D19644113E0E2076D08154392
:10B6A0006408C2071443039A01261205C01A914187
:10B6B0003605001C7141CE07400830434908C018C8
:10B6C00051412A46234600F00EFACDE7FFE70498E1
:10B6D00001224000C117121A00238B410498314601
:10B6E000C417381AA141EEE730B40124E4076340DF
:10B6F00030BC55E730B40124E407614030BC4FE76B
:10B700000000E0FFF0B51FB488B00B990998002441
:10B7100048400999C00F490049080991C0070B9991
:10B720000090490049080B9109990898A6460843DA
:10B730001CD00B990A98084318D00998012440009E
:10B74000420D4800410D099824050003000B2043D9
:10B7500009900B980003000B20430B9050181C49D4
:10B760004018002201901446104605E000200146D2
:10B770000DB0F0BD032801DA034600E003239C4628
:10B78000C11A0AAE0AE05F0008ADED5B4F00F75B3F
:10B790007D430027AA187C41491C5B1E6145F2DDF0
:10B7A000410004AB5A522104120C0A43240C401CE1
:10B7B0000828DFDB01980290009970460191009003
:10B7C000059B049A0799069800F09AF9D0E70000C3
:10B7D0000DFCFFFFF0B50C465C4085B0E40FE407BC
:10B7E00003944C0000266408590094464908024618
:10B7F0000296224321D062460A431ED06200570DB2
:10B800004A000E032303550D012402462C4924054A
:10B81000781B1B0B360B40182343264361460090D0
:10B820001C46501AB44103D30098401C009002E01B
:10B83000921800985B41002803DA0020014605B009
:10B84000F0BD0020012109050746864611E0644647
:10B850001D46141BB54106D36546521BB3417446C1
:10B8600007430C43A646CD074008490828439218D1
:10B870005B4105460D43EAD11046184313D060469C
:10B88000194650407140084306D06046101AB34133
:10B8900006D20122002306E000220123DB0702E09A
:10B8A0000122D2435310009874460105381C6141AF
:10B8B000029C039D0019694100F015F9BFE70000E3
:10B8C000FD03000070B54B005B0803430BD04B0039
:10B8D0005C0D002633466542B341D417AD1AA3412F
:10B8E00002DB0020014670BD12053018514170BDC9
:10B8F000C217C10F504010B54018CA079623002147
:10B9000000F0B8F810BD10B500229623114600F0E3
:10B91000B1F810BDC20F410040020123400ADB050F
:10B92000D207090EC0187F2901DA00207047962936
:10B9300003DC9623591AC84001E096398840002A52
:10B94000F4D04042704700004A0009030123090B6C
:10B950001B051943094B10B5520D9A4201DA00201C
:10B9600010BD064B34339A4203DC9A1A00F056F8A5
:10B9700010BD03495118884010BD0000FF030000AE
:10B98000CDFBFFFFC20FD207400040080BD0C10D16
:10B990000723DB01C91840020905400A1143C20808
:10B9A00040071143704700200146704710B5002939
:10B9B00004DB0124E40740428C412146002B04DBD8
:10B9C0001C460123DB075242A3418B4200D1824235
:10B9D00010BD000010B5002904DB0124E40740423B
:10B9E0008C412146002B04DB1C460123DB0752421D
:10B9F000A341994200D1904210BD000010B5202A09
:10BA000004DB0146203A9140002010BD91402023E4
:10BA10009C1A0346E3401943904010BD10B5202AFC
:10BA200004DB0846203AD040002110BD0B46D3402D
:10BA3000D0402024A21A91400843194610BD10B5E9
:10BA4000202A06DBCB170846203A1041C1170B43CA
:10BA500006E00B461341D0402024A21A914008432F
:10BA6000194610BD002904DA401C490001D14008E4
:10BA70004000704770B40024050C05D11024000468
:10BA800002D1002921D01124050E01D10002083471
:10BA9000050F01D10001241D850F01D18000A41CD8
:10BAA000002801DB4000641C002908D020252E1B43
:10BAB0000D46F540A14000D001212943084301066D
:10BAC0001B1B000ADB1D02D5002070BC7047DB0584
:10BAD000181880180029F8DA401C4900F5D170BC0C
:10BAE00040084000704710B5002B08DA0024401CC5
:10BAF000614192185B411A4301D14008400010BDDA
:10BB0000F0B51FB482B005460C0003D0084607F01C
:10BB100059FC02E007F056FC203002460090214616
:10BB20002846FFF76BFF049B059A04460F4618430F
:10BB30001143084314D0184610431BD000984021ED
:10BB40000A1A18460599FFF769FF05460E46009A3E
:10BB500005990498FFF752FF084305D0012004E03F
:10BB60002046394607B0F0BD0020C11705430E43FB
:10BB70002C43374300990E986305401A7905E40A6F
:10BB800000220C43FD0A0A3002D500200146E9E7F5
:10BB90000105101969410C9C0D9D00196941FFF7C1
:10BBA000A2FFDFE74A0009030123090B1B05194324
:10BBB0000A4B10B5520D9A4202DA0020014610BD20
:10BBC000064B34339A4203DC9A1AFFF727FF10BD65
:10BBD000034BD218FFF712FF10BD0000FF03000057
:10BBE000CDFBFFFF064C0125064E05E0E36807CCC0
:10BBF0002B430C3C98471034B442F7D3FFF764FA58
:10BC0000B8A30200D8A3020030B58C180278401CFB
:10BC100013071B0F01D10378401C120906D10278CB
:10BC2000401C03E005780D70401C491C5B1EF9D1D7
:10BC300001E00B70491C521EFBD1A142E6D300204B
:10BC400030BD0000F8B52048002400681C261F4DB8
:10BC500060270090E000295889088900891CB143B9
:10BC60000831B9432950002C08D0012C09D0022CEE
:10BC70000BD0032C0DD0042C0FD012E004226A70DC
:10BC80000FE0124A082151720BE0104A1021517442
:10BC900007E00E4A2021517603E00C494022203172
:10BCA0004A70401908F02EFC641CE4B2052CD1D374
:10BCB0000749684608F036FC002801D008F06EF805
:10BCC000044801780170F8BDF09B0200C00A002012
:10BCD000133D0200B8000020FEB5134C0026E068BA
:10BCE0000125124F002810D008F014F800280BD0BE
:10BCF0000120B86068460670E0680190217C6846C3
:10BD00000181A57421688847FEBD094806600120AD
:10BD1000B8600848066069460D7080688880A57420
:10BD200068462168EFE70000B41800200073004067
:10BD300000710040007500400249012800D0002039
:10BD400008707047B800002070B5002413460546FF
:10BD5000002A07D0002908D048000F494018403871
:10BD6000C08F1080012D06D013E00A220A49184620
:10BD7000FFF7E4FAF6E70521074808F091FB0028F1
:10BD800001D008F00BF808F0EDFB641CE4B2052CC0
:10BD9000F9D3002070BD0000E80A00201FB5002084
:10BDA00006490D22029003460092019103908022E1
:10BDB00003A106480DF058FC1FBD0000180000202C
:10BDC0005461736B2D44656275670000B5BE010058
:10BDD0001FB50020064905220290034600920191FA
:10BDE0000390402203A108480DF03EFC1FBD000057
:10BDF000840000205461736B2D4770727341707022
:10BE0000586B617000000000296902001FB5002016
:10BE100006490622029003460092019103904022B7
:10BE200003A107480DF020FC1FBD000038000020D2
:10BE30005461736B2D47736D506172736500000020
:10BE4000FD6C02001FB50020064907220290034640
:10BE5000009201910390602203A107480DF004FCB9
:10BE60001FBD00003C0000205461736B2D47736DB3
:10BE700053656E6400000000798402001FB5002045
:10BE80000649082202900346009201910390602225
:10BE900003A107480DF0E8FB1FBD00004000002093
:10BEA0005461736B2D47736D54657374000000000B
:10BEB0000989020064200DF0E3F802F061FEF9E761
:10BEC00001F0DCFF06F0A6F802F068FB00F004FFCA
:10BED00000F096FC00F076FA00F0F2F900F092F82B
:10BEE00001F0B2FF012006F057FDFFF757FF00F009
:10BEF0000DF800F027F8FFF789FFFFF7A3FFFFF722
:10BF0000BDFFFFF765FF00F0D1FCFCE71FB5002087
:10BF10000649042202900346009201910390802278
:10BF200003A107480DF0A0FB1FBD0000C4000020C6
:10BF30005461736B2D54696D65723130306D7300CF
:10BF4000858B02001FB5002006490E220290034691
:10BF5000009201910390402203A108480DF084FB58
:10BF60001FBD0000C00000205461736B2D55736528
:10BF70007254696D657231306D730000A58B0200DB
:10BF80000249012800D000200870704710010020ED
:10BF9000F8B500F041F8134C2078012802D00120B8
:10BFA000E070F8BDA078401CC0B2A0700A28F8D399
:10BFB0000026A670304604F0F5FB0546E07801281F
:10BFC00000D1E67020890090E388A28806A1284667
:10BFD00007F0E4F9284602F0C9FD2946002004F0E4
:10BFE000A3FBF8BD10010020414C532D25303564D2
:10BFF0002050532D253035642049522D253035648D
:10C000000D0A000010B500F06DFF02490C20086019
:10C01000002010BD2807005070B51F4D002668781D
:10C0200003280ED006DC00280BD0012809D00228F6
:10C0300030D106E0184C0A34042805D0FF2829D155
:10C040001FE0401C687070BD134A02230A320C21A5
:10C050003C2000F069FF20880F4AA88002230A32A2
:10C060000E213C2000F060FF20880B4AE88002236C
:10C070000A320A213C2000F057FF20882881687886
:10C08000DFE7267003200449607002220A313C2059
:10C0900000F062FF6E7070BD1001002010B50A2222
:10C0A0000249012001F05EF810BD00000C9E020064
:10C0B00000281BD0134A136A0370136A1B0A4370CB
:10C0C000136A1B0C8370136A1B0EC370536A0371CF
:10C0D000536A1B0A4371536A1B0C8371526A120E16
:10C0E000C2710022027242728272C272002907D0AB
:10C0F000012000074269006942439001000C08805A
:10C100007047000040000010F8B5154C207800285A
:10C110001DD0401E20706078012818D1002168468B
:10C1200000F088F80646002004F03CFB62880546D3
:10C13000002E0DD0501C60800AA1284607F02EF971
:10C14000284602F013FD2946002004F0EDFAF8BD60
:10C15000501C60800AA12846009B07F01FF9EFE7FA
:10C160003C01002044656275674F75743A20487839
:10C170003731312825303564292D4552520D0A00BA
:10C1800044656275674F75743A20487837313128B5
:10C1900025303564292D256C640D0A0038B5134C03
:10C1A00000256560684600F0BBF8606800996D1C6A
:10C1B0004018EDB26060402DF4D38009606000202B
:10C1C00004F0F0FA054600220146104604F0C0FBD8
:10C1D0006068E86400222946012004F0B9FB294682
:10C1E000002004F0A1FA002038BD00003C0100202E
:10C1F0000249012800D00020487070473C0100200F
:10C20000F8B500240E46074625460094002908D1BB
:10C210000120F8BD684600F083F800982D18641CD2
:10C22000E4B2B442F6D331462846FEF7A5FF3860A3
:10C230000020F8BDF8B51C4E054670680C46002875
:10C2400001D0401C01D1FFF7A9FF684600F068F853
:10C25000002801D00120F8BD002C01D000982060FA
:10C2600000997068814200D800900099081A6421F2
:10C27000FEF782FFFFF747FBFFF784FB0B4A0C4BEF
:10C28000FFF7A8FA0B4A0C4BFFF78AF9FFF75CFBA4
:10C290000A490090884200D90091002D01D00098F1
:10C2A00028600020F8BD00003C01002085EB51B85B
:10C2B0001E85DB3F9A9999999999A93F50C300002F
:10C2C0001CB5002401221920009423461146019434
:10C2D00009F08CF90022182000942346114601949D
:10C2E00009F084F90121192009F04AFA05480649A4
:10C2F0000068C06C4860002801D0401C01D1FFF7E5
:10C300004DFF1CBD040100203C01002003490878BA
:10C31000FF2801D0401C0870704700003C0100203D
:10C32000F8B50024074625462146192009F028FAC9
:10C33000194E06E00A200CF0A3FE6D1CEDB2C82DCC
:10C3400006D23069000EC007C00FF3D1C82D01D34B
:10C350000120F8BD00250121192009F011FA64001F
:10C360000021192009F00CFA3069000EC007C00F37
:10C3700000D0641C6D1CEDB2182DECD301211920E6
:10C3800009F0FEF90120C00544400021192009F000
:10C39000F7F900203C60F8BD000500500249012873
:10C3A00000D0002088707047540100200448028AA1
:10C3B000C1898A4202D00182012070470020704763
:10C3C0005401002010B504490C200860FFF73AFC26
:10C3D00000F004F810BD000070070050F8B56A4680
:10C3E00005210120FFF7B0FC73480525867A182740
:10C3F000042401220021330007F013F80604292940
:10C400005559826A6B461B881E46FF3E1E3E1E2EF5
:10C4100001D80226C6721E46FF3EC83E1E2E01D817
:10C420000326C672654E9E191E2E00D8C472634E36
:10C430008B3E9E191E2E00D8C572F53B1E2B01D8CF
:10C44000C77202E0C37A002B42D0827240E0C37A06
:10C45000022B08D0032B0BD0042B0ED0052B16D0AB
:10C46000182B1AD034E06B461B88FF3B1E3B17E0AD
:10C470006B461B88FF3BC83B12E06B461D884F4B49
:10C4800009E0761C867223E0C172817220E06B465F
:10C490001D884A4B8B3BEB1802E06B461B88F53B33
:10C4A0001E2BF1D8EDE71E238381847210E083896F
:10C4B000642B07D26E463688F53E1E2E02D8C77210
:10C4C0000A3383816B461B883D4EB34200D385728D
:10C4D0003C4E33693C4D1B0FDF073C4BFF0F13D025
:10C4E0002970198033691B0FDB07DB0F14D000257F
:10C4F0004679330006F095FF051218292D3B4500BB
:10C50000C37A03704270C0E72A701D88304FBD4265
:10C51000E8D06D1C1D80E5E70125E9E7002D33D04B
:10C520008571C17142712FE0C3795B1CDBB2C371AD
:10C53000022B837906D9AB4216D1022141710272D6
:10C540004372F8BDAB420FD11EE0818103234371DA
:10C550001AE0002D06D083799D4205D183890A33E4
:10C56000838111E044710AE0417181710CE0C3796B
:10C570005B1CDBB2C371052B06D9002D01D0C17144
:10C5800002E08171C1714171037A012BD9D14379E4
:10C59000002BD6D101720C4C437AA41FE418203C26
:10C5A000E27703704270C289094B9A4202D0521C52
:10C5B000C281F8BDC181F8BD540100208AFDFFFF92
:10C5C0009A030000000500506C0100202415002093
:10C5D000FFFF0000F8B5534C0027207A00280FD049
:10C5E000607A401CC0B2607205286BD36772A07A73
:10C5F000030006F016FF08686B727A81848B8E95B3
:10C60000494E6772607A04258100411889194A5D94
:10C61000002A07D0D1B20B0006F003FF064E091D19
:10C62000332B2F4B002D47D06D1EEDB2EFE73D4B66
:10C630000B33195C491CC9B219540A2919D3401C7F
:10C64000C0B2002100F016F9607A81004118891902
:10C650004F551F5430E0334A0B32115C491CC9B2AC
:10C660001154012905D0022907D00A2924D31754CF
:10C6700022E0401CC0B20A210DE0401CC0B20021E3
:10C6800009E0284A0B32115C491CC9B211540A292D
:10C6900004D8401CC0B200F0EDF80DE00B46153B8D
:10C6A000092B03D81E22511AC9B2F2E75029DED253
:10C6B00002E01C490B310F54607A401CC0B260721A
:10C6C00004289FD3F8BD0021162008E00121162080
:10C6D00009F062F8A07A401CA0720021112009F034
:10C6E0005BF8A07A401CA072F8BD0121112009F06E
:10C6F00053F8A07A401CA07200211220EFE701211C
:10C70000122009F049F8A07A401CA07200210620EE
:10C71000E5E70121062009F03FF8A07A401CA0724D
:10C72000A772F8BD440100201015002070B5254CFB
:10C73000207A012842D0607821780025884201D2F1
:10C74000002102E00A2807D20121162009F024F86E
:10C750006078401C607000E06570E078A1788842E5
:10C7600001D2002102E00A2807D20121112009F09C
:10C7700013F8E078401CE07000E0E5706079217902
:10C78000884201D2002102E00A2807D201211220AA
:10C7900009F002F86079401C607100E06571E07991
:10C7A000A179884201D2002102E00A2807D20121A2
:10C7B000062008F0F1FFE079401CE07170BDE571E2
:10C7C00070BD00004401002010B50C49012812D0B2
:10C7D000002008720121162008F0DEFF012111203F
:10C7E00008F0DAFF0121122008F0D6FF012106200F
:10C7F00008F0D2FF10BD0120087210BD44010020D6
:10C8000010B5162008F055FF0121162008F0C4FFCE
:10C81000112008F04EFF0121112008F0BDFF122069
:10C8200008F047FF0121122008F0B6FF062008F0AB
:10C8300040FF0121062008F0AFFF10BD10B504280D
:10C8400012D8002810D0052A0ED28300C418074B36
:10C85000E3189A18203AD37E8B4205D0D176044A49
:10C86000002110182038C17710BD000010150020DD
:10C870004F0100200C4A012809D002280BD00328C0
:10C880000DD0042802D10A2900D8917170470A29D5
:10C89000FCD8117070470A29FCD8917070470A299A
:10C8A000FCD81171704700004401002010B5024807
:10C8B0000CF0E6FB10BD00001027000010B5234C63
:10C8C0008CB0A089A081607A6072FFF71FFDA0691B
:10C8D000401CA061E079002807D0401E0006000E31
:10C8E000E07102D1642001F0F3FA684606F082F8A4
:10C8F0002C2269461648FEF721FD15487D22017D50
:10C9000012018A1A114920310A70027C521C4A70A5
:10C91000027B8A70027ACA7002790A7100684871D3
:10C92000A189884208D0A0812078012809D1607AA5
:10C93000002805D0401E07E0607A0A2803D30120B2
:10C9400020700CB010BD401C6072FAE7740100202A
:10C9500030150020F0B587B0002003F023FF054616
:10C960000023044680351A462946184600F01CFA72
:10C97000A8690ECD0391019302920490286800905B
:10C980006B68AA689AA120465B1C0C3D06F006FD68
:10C990002046FEF717FD81B2204602F093F89F4F24
:10C9A00000267000385A9E49884205D1721C9DA10C
:10C9B000204606F0F3FC07E0C1B2030A0091721CA6
:10C9C0009CA1204606F0EAFC2046FEF7FBFC81B263
:10C9D000204602F077F8761CF6B2022EE1D36420EE
:10C9E0000CF04EFB02F04EF898A1204606F0D6FC63
:10C9F0002046FEF7E7FC81B2204602F063F80026ED
:10CA000006A905A802F00EF86846008B01280FD190
:10CA10006846007D1B286FD00D2809D0302807D329
:10CA2000392805D83038A055761CF6B20E2EE7D33B
:10CA3000002E4BD00E2ED7D120787D22E178D20067
:10CA400050430A18607864214843A1780A23594367
:10CA5000401812186A61207961795843401828619A
:10CA6000A1790A265943E3790A27C918E960237A8C
:10CA70007343667A9B199C46AB60A37A0A2673437C
:10CA8000E67A9B196B60267B7E43677BF6197D27D0
:10CA90003F01D71B2E60242FA6D201281BD00328CC
:10CAA00019D0052817D0072815D0082813D00A2830
:10CAB00011D00C280FD0042811D006280FD0092837
:10CAC0000DD00B280BD002280DD011E06846007D58
:10CAD0000D2889D129E0491E1F2985D208E0491E69
:10CAE0001E2981D204E0900736D0491E1C29D3D2DA
:10CAF0006046172801DD77E774E03B2BFBDC3B2E1B
:10CB0000F9DC28690023401E28611A462946184688
:10CB100000F094F954A1204606F040FC2046FEF7B0
:10CB200051FC81B2204601F0CDFF01F0ABFF53A1D3
:10CB3000204606F033FC2046FEF744FC81B2204636
:10CB400001F0C0FF002606A905A801F06BFF6846AA
:10CB5000008B012804D014E0491E1D29CBD2C7E761
:10CB60006846007D1B283DD00D280AD0302808D308
:10CB7000392806D83038A055761CF6B2042EE2D3F8
:10CB800001E0002E17D0042ED1D120780A2148438D
:10CB900061780A224018A860A1785143E278891888
:10CBA0006960172801DC3B290BDD002069460883FA
:10CBB000207038A10CE06846007D0D28B7D13AA15D
:10CBC00006E00002081869460883012020703BA196
:10CBD000204606F0E3FB2046FEF7F4FB81B2204638
:10CBE00001F070FF2146002003F09EFD07B0F0BD6C
:10CBF00054696D65203A20253034642D2530326427
:10CC00002D2530326420253032643A253032643AA2
:10CC100025303264282564290D0A00008201002095
:10CC2000FFFF0000416C61726D25643A204E430D98
:10CC30000A000000416C61726D25643A2025303293
:10CC4000643A253032640D0A0000000053657420F8
:10CC500054696D653A2059594D4D444468686D6D6D
:10CC600073730D0A000000000D0A536574205469A7
:10CC70006D65204F4B210D0A0000000053657420A4
:10CC8000416C61726D2054696D653A2068686D6D04
:10CC90000D0A000053657420416C61726D2045528D
:10CCA00052210D0A0000000053657420416C61722E
:10CCB0006D2043616E63656C210D0A00536574201D
:10CCC000416C61726D204F4B210D0A000148806953
:10CCD000704700007401002000B52E488BB0018819
:10CCE0000180001F017801700A38417841700146C7
:10CCF00012310A780A7014310A880A8081788170AA
:10CD0000C178C17001790171417941718179817175
:10CD10002149234A03C901910090204869460880AF
:10CD20001D48083007F060FE002801D007F036F8F3
:10CD300019480121083007F0DBFE174801231822AB
:10CD40000021083007F0FAFD002801D007F026F88E
:10CD50001148083007F03CFE0E48122112300170D5
:10CD6000092141701C2181701021C1701E210171A7
:10CD70000021417103460A46084600F05FF8684604
:10CD800005F038FE2C2269460648FEF7D7FA0BB0AC
:10CD900000BD00008201002068A00200FF0F00001B
:10CDA000A561020030150020F0B5234C8BB01D4664
:10CDB00016460F4600281DD021784900017162787F
:10CDC000D2088918017161784901C170A278891867
:10CDD000C170E178C90081702279D2088918817008
:10CDE000217949014170627952088918417061794D
:10CDF000C9010170002F07D0684605F0FBFD2C2209
:10CE000069463846FEF79AFA002E03D00A482038C1
:10CE1000C0693060002D0BD0207828706078687071
:10CE2000A078A870E078E87020792871607968713E
:10CE300000200BB0F0BD000094010020FFB50026DB
:10CE400089B01D461746304603F0ACFC04460998ED
:10CE5000002805D002462146022001F056FD07E0D9
:10CE60000A9800280DD001462C222046FEF766FACB
:10CE700021461C2210316846FEF760FA0FCC103CA8
:10CE800023E0002F03D016493868C86121E0002D47
:10CE90001ED028787D2109014018606168782146FC
:10CEA000401E2061A878E0600890E878A0600790B4
:10CEB0002F7967606D791C22103168462560FEF776
:10CEC0003DFA39462846089B079A05F0A5FD00E083
:10CED00001262146002003F027FC30460DB0F0BDAE
:10CEE000740100201FB50E4B0E4C0FCB009001A813
:10CEF0000EC06078002811D0094800231A46694600
:10CF0000083807F07BFF002802D006F047FF03E057
:10CF10000348083807F062FF0020607004B010BDBD
:10CF200090A00200B80100207FB582B001211D460B
:10CF3000440816460B46009103AA2146054807F00F
:10CF4000B3FFEBB232462146024807F09BFF0020B8
:10CF500006B070BD88A00200F7B57D24240100272B
:10CF600082B015464608EBB2009731460848039A4E
:10CF700007F09AFF641EA4B2002802D0002CF2D160
:10CF800004E0002C02D0002005B0F0BD0120FBE73A
:10CF900088A00200F8B56D4C00212346A7781879C7
:10CFA0000090D8780D460246401CC6B2D8683B00B7
:10CFB00006F037FA05040812BAC1C7002078012824
:10CFC00073D0F8BD002871D0012000F0E9F80220EC
:10CFD000A07025812561F8BD5D4F2369BB4201D258
:10CFE0005B1C2361009B9A4270D3E5702289865CAA
:10CFF0000B3E330006F015FA1B0F1215181B1E21ED
:10D000004A4A4A2426292C2F32354A4A4A383A3D80
:10D010003F4245484A00FF21073137E0FF212731D1
:10D0200034E0FF214B3131E0FF215E312EE0FF2162
:10D0300089312BE0FF21B93128E0FF21EF3125E0D4
:10D04000444923E04349403120E0424988311DE012
:10D050004049AF311AE03121090117E037210901B8
:10D0600014E0F721890011E03B490FE03A49803193
:10D070000CE03A490AE039494E3107E031214901D3
:10D0800004E03721490101E0F721C900521C92B2A6
:10D090002281805C2D23032816D008DC00280FD0C5
:10D0A00001280FD0022806D115E02EE047E0042821
:10D0B0000DD066280DD006060DD5803820710BE006
:10D0C000A520FBE75520F9E71920F7E72FE00F200F
:10D0D000F4E75020F2E72371521C22812048FEF72A
:10D0E0004BF802461948012300211430009507F03F
:10D0F0000FFE21780320002907D0E18864222369EC
:10D100004A439A4203D2002901D0A070F8BD238976
:10D11000E268D65C002EF9D1D2185278002AF5D1F7
:10D120000029F2D02581F8BD0098824201D2E67034
:10D13000F8BD0420A070002000F032F8E560A57072
:10D14000F8BD002000F02CF8F9E700001C010020D9
:10D150009CFF63000B02000017040000270500007D
:10D160008096980070B50D4B0128DC8804D0002C07
:10D1700000D01870002070BDDD68002D01D00120A6
:10D1800070BD002902D01870D96003E0002018613A
:10D19000944200D2DA80FFF709F9EBE71C01002086
:10D1A00070B506462F4886B0417801294DD100243C
:10D1B000447007F071FB07F05DFA2B4D2B4AA9680C
:10D1C000686802902748039102A9143007F0B8FD5F
:10D1D000002801D006F0E2FD25490120C86028683A
:10D1E000049004A9072007F073FA002801D006F084
:10D1F000D5FD1C4801231F4A00211430009407F07C
:10D2000087FD01A807F0DCFA002801D006F0C6FD72
:10D210001448143004680720FF34413407F0AEFA94
:10D22000024668462146007907F0F8FA002801D046
:10D2300006F0B4FD6846007907F010FB002801D025
:10D2400006F0ACFD072007F0A3FA0B48012E06D02C
:10D2500007F044FD072007F089FA06B070BD07F01B
:10D2600049FDFAE71C010020009E0200176302003E
:10D27000008C0040400D03003001002070B50123F8
:10D280001B075C691B695C4383189C4201D2032025
:10D2900070BD002A14D0012400230BE005780E781D
:10D2A000AE4204D0FF2D01D0022070BD0024401CEE
:10D2B000491C5B1C9342F1D3012C01D0012070BDAD
:10D2C000002070BDF8B5002768460780384603F097
:10D2D00069FA06466946FEF7EBFE0C22314630A09D
:10D2E00001F024FC684602882FA1304606F056F86B
:10D2F000304601F03BFC01242407626930A130462E
:10D3000006F04CF8304601F031FC226932A130467B
:10D3100006F044F8304601F029FC2069EB25AD0207
:10D32000291A2069281A00F06DF8684607800088DD
:10D33000305468460088401C81B268460180FF294D
:10D34000F5D92069FF22281A0132314600F086F80B
:10D35000FF2101313046FEF70AF82069FF22281A22
:10D360000132314600F062F868460780684600885E
:10D37000315C814205D1401C80B269460880FF289B
:10D38000F4D968460088FF2801D919A000E01AA046
:10D3900001F0ECFB3146002003F0C6F9F8BD0000B7
:10D3A00043707549443A000043707520466C6173C0
:10D3B0006853697A653A2564206B420D0A000000C3
:10D3C00043707520466C617368506167654E756D7A
:10D3D000203A25640D0A000043707520466C617385
:10D3E000685061676553697A653A25640D0A0000E3
:10D3F00054657374204F4B0054657374204552522A
:10D400000000000070B50D460446A84208D101F0A6
:10D41000EBFD70BD204601F0E7FD3069041901E025
:10D4200001263607AC42F5D370BD704710B5012315
:10D430001B075C691B695C4383189C4203D3002A69
:10D4400001D0002306E0012010BD04780C70401CC0
:10D45000491C5B1C9342F8D3002010BDF7B505466C
:10D46000012000074169164600694143A81981421D
:10D4700031D3002E31D028460199FFF7FFFE002856
:10D480002AD0294600240846FFF7BCFFB007B2089F
:10D49000002800D0521C01F0CDFD002015E00199BC
:10D4A00083005918CE788F783602BE194978360233
:10D4B0008919019E0902F65C71185E193160EB58FA
:10D4C000994201D0641CA4B2401C9042E7D301F001
:10D4D000A1FD002C01D00120FEBD0020FEBD0000FA
:10D4E00038B5002003F05EF904466946FEF7E0FD1A
:10D4F0000C22214608A001F019FB6846028808A109
:10D50000204605F04BFF204601F030FB214600206D
:10D5100003F00AF938BD000043707549443A000031
:10D5200043707520466C61736853697A653A256467
:10D53000206B420D0A00000018B50E4B01221A6044
:10D540000D490C68002CFCD000240C600B498C6841
:10D550008968A40501D50A4C2143CC17A40F611892
:10D56000891000915A6000990A22514301800020DD
:10D5700018BD000000C0004000C1004000C50040D0
:10D5800000FCFFFF38B500221349012803D0002812
:10D5900000D10A7038BD0878401CC0B208700A2853
:10D5A000F8D30A70002003F0FDF804466846FFF740
:10D5B000C3FF6A4600200A21105EFDF7F3FD024614
:10D5C00006A1204605F0EAFE204601F0CFFA2146EA
:10D5D000002003F0A9F838BD380100204370752001
:10D5E00054656D703A2564200D0A0000F8B50025D9
:10D5F00000F08CFA002003F0D5F80090002003F032
:10D60000D1F8424C064642A12268009805F0C6FEB9
:10D61000009801F0ABFA221D42A1009805F0BEFE71
:10D62000009801F0A3FA43A16269009805F0B6FEE4
:10D63000009801F09BFA228B44A1009805F0AEFE01
:10D64000009801F093FA46480BF01AFD6169002931
:10D6500047D00020491E00F0B9F833E00020410017
:10D660007052401C80B28028F9D3FF2701373A4618
:10D670003146284600F096FB39463046FDF777FEE6
:10D680003A463146284600F05FFB00204100715ABF
:10D69000814203D1401C80B28028F7D380282A46DB
:10D6A00007D030A1009805F079FE009801F05EFAED
:10D6B0000BE030A1009805F071FE009801F056FAD9
:10D6C000FF3501356069A842C8D86069A84201D811
:10D6D0002CA100E031A1009805F060FE009801F057
:10D6E00045FA61690020491E00F070F831A10098E8
:10D6F00005F054FE009801F039FA0020009903F07B
:10D7000013F83146002003F00FF8F8BDF4140020A0
:10D710000D0A466C6173682D49443A3078256C587F
:10D720000D0A0000466C6173682D4E616D653A25E7
:10D73000730D0A00466C6173682D546F74616C53ED
:10D74000697A653A256C640D0A000000466C6173C5
:10D75000682D5061676553697A653A25640D0A0042
:10D76000881300000D0A416464723A256C642045F8
:10D77000525200000D0A416464723A256C64204FD5
:10D780004B0000000D0A464C41534828535049298C
:10D790002054657374204F4B0D0A00000D0A464C4F
:10D7A00041534828535049292054657374204552E9
:10D7B000520D0A000D0A464C41534828535049293E
:10D7C000204541525345210D0A000000F8B5CE4DC9
:10D7D0000E462F8B3946FDF7CFFC84B239463046D2
:10D7E000FDF7CAFC86B239466869FDF7C5FC401EE4
:10D7F000A04201D3B04201D20120F8BD102007F0B1
:10D8000087FF052000F090FA002000F08DFA0090CC
:10D81000102007F085FF102007F07AFF502000F05D
:10D8200083FA102007F07CFF102007F071FF012021
:10D8300000F07AFA002000F077FA102007F070FF6D
:10D84000102007F065FF062000F06EFA102007F0A8
:10D8500067FFB44202D9E0B234460646B44231D141
:10D86000102007F055FF062000F05EFA102007F0A8
:10D8700057FF2D8B1020654307F04AFF202000F052
:10D8800053FA2802000E00F04FFA2804000E00F0B0
:10D890004BFAE8B200F048FA102007F041FF0A20E6
:10D8A0000BF0EEFB102007F033FF052000F03CFAF0
:10D8B000A52000F039FA0446102007F031FF032CB0
:10D8C000EDD022E0298B6869FDF756FC361B401E1F
:10D8D000B0421CD1102007F01BFF602000F024FA9A
:10D8E000102007F01DFF0A200BF0CAFB102007F0E4
:10D8F0000FFF052000F018FAA52000F015FA0446E5
:10D90000102007F00DFF032CEDD00020F8BD761C91
:10D9100032E0102007F0FCFE062000F005FA10208F
:10D9200007F0FEFE2F8B1020674307F0F1FE20204A
:10D9300000F0FAF93802000E00F0F6F93804000E93
:10D9400000F0F2F9F8B200F0EFF9102007F0E8FE6D
:10D950000A200BF095FB102007F0DAFE052000F0FE
:10D96000E3F9A52000F0E0F90746102007F0D8FE03
:10D97000032FEDD0641C761E600739D0002EC8D16D
:10D98000A2E0102E01D3200735D0102007F0C0FEF2
:10D99000062000F0C9F9102007F0C2FE2F8B1020DE
:10D9A000674307F0B5FE522000F0BEF93802000EC2
:10D9B00000F0BAF93804000E00F0B6F9F8B200F041
:10D9C000B3F9102007F0ACFE0A200BF059FB102031
:10D9D00007F09EFE052000F0A7F9A52000F0A4F9AD
:10D9E0000746102007F09CFE032FEDD00834083EB8
:10D9F000082EC6D266E0102007F08AFE062000F04E
:10DA000093F9102007F08CFE2F8B1020674307F04E
:10DA10007FFED82000F088F93802000E00F084F96B
:10DA20003804000E00F080F9F8B200F07DF9102003
:10DA300007F076FE0A200BF023FB102007F068FEAB
:10DA4000052000F071F9A52000F06EF907461020BE
:10DA500007F066FE032FEDD01034103EC8E710200B
:10DA600007F056FE062000F05FF9102007F058FE80
:10DA70002F8B1020674307F04BFE202000F054F955
:10DA80003802000E00F050F93804000E00F04CF996
:10DA9000F8B200F049F9102007F042FE0A200BF01E
:10DAA000EFFA102007F034FE052000F03DF9A52024
:10DAB00000F03AF90746102007F032FE032FEDD0B0
:10DAC000641C761E002ECAD1102007F021FE06200D
:10DAD00000F02AF9102007F023FE102007F018FEAE
:10DAE000502000F021F9102007F01AFE102007F056
:10DAF0000FFE012000F018F9009800F015F9102031
:10DB000007F00EFE01E70000F4140020F0B5434BCF
:10DB100085B00FCB6C460FC44148017800295FD017
:10DB2000002101703F4903200860102007F0F8FD34
:10DB30000F21684681700C2141700D21017037481A
:10DB400000226946083806F0E5FF002801D006F0FB
:10DB500025F91C213448FDF70AFC102007F0D8FDF8
:10DB60009F2000F0E1F8A52000F0DEF82E4C21689F
:10DB7000401800022060A52000F0D6F82168401867
:10DB800000022060A52000F0CFF821684018206036
:10DB9000102007F0C5FD0126244A2068760575127D
:10DBA000811AEF02904221D00DDC2149401819D092
:10DBB0000A2819D01F49C8420BD11FA1201DFDF70B
:10DBC00008FC666128E0012917D0022917D0032933
:10DBD0001DD01CA1201DFDF7FCFB002060612083EF
:10DBE00005B0F0BD1BA1E9E71DA111E01FA1201D9B
:10DBF000FDF7EFFB0120000507E01FA1DEE721A1F3
:10DC0000201DFDF7E6FB01208005606104E020A1F6
:10DC1000201DFDF7DEFB67612583E1E758A00200C8
:10DC20003901002040070050F41400201440EF0098
:10DC3000BFDA40FF2C05FDFF4D5832354C313630F0
:10DC400036450000556E6B6E6F776E20466C6173C3
:10DC50006800000053535432355646303136420086
:10DC600053535432355646303634430057323551CB
:10DC70003830445600000000573235513136425694
:10DC80000000000057323551333242560000000088
:10DC9000573235513634425600000000F8B50F4671
:10DCA00020491646044649690025801988421CD837
:10DCB000002E1AD0102007F02BFD062000F034F8BB
:10DCC000102007F02DFD102007F022FD022000F0AB
:10DCD0002BF82002000E00F027F82004000E00F0C0
:10DCE00023F8E0B200F020F805E00120F8BD785DEF
:10DCF00000F01AF86D1CB542F9D3102007F010FDA2
:10DD0000102007F005FD052000F00EF8A52000F01A
:10DD10000BF80446102007F003FD032CF0D0002080
:10DD2000F8BD0000F414002001B582B001200246C5
:10DD3000009001AB02A9034806F076FF684600791F
:10DD40000EBD000050A00200F8B50F46144916465B
:10DD50000546496900248019884213D8002E11D045
:10DD6000102007F0D5FC0320FFF7DEFF2802000E8D
:10DD7000FFF7DAFF2804000EFFF7D6FFE8B2FFF73F
:10DD8000D3FF06E00120F8BDA520FFF7CDFF3855F1
:10DD9000641CB442F8D3102007F0C2FC0020F8BD88
:10DDA000F4140020F7B51D49164607464969801945
:10DDB00088420AD8002E08D0FF20F9B20130451A57
:10DDC0003C46B54203D9154603E00120FEBD002DB7
:10DDD00008D02A4638460199FFF760FF019840199C
:10DDE00064190190701B050A002D0DD0FF2201322D
:10DDF00020460199FFF752FF0198FF34FF300130B0
:10DE000001346D1E0190EFE7E01B321A03D020466B
:10DE10000199FFF743FF0020FEBD0000F41400202D
:10DE20000448002101600121820511600168002978
:10DE3000FCD07047000100400249012800D00020BA
:10DE400088707047C801002010B5FFF7E9FF094945
:10DE50000020087008480121007806F0C1F9002868
:10DE600001D005F09BFF07F06BFB002801D005F007
:10DE700095FF10BDC8010020C4A0020010B506F037
:10DE800077FB002801D005F089FF10BD10B5642094
:10DE900000F01EF810BD000010B5FF38412805D174
:10DEA0000A4801780A2902D2491C017010BD416854
:10DEB000491C02D04168491C41608168143181606D
:10DEC000FEF734FC04F0C6FD10BD0000AC010020DC
:10DED0000EB50E4A116892680091019002920C49A9
:10DEE000684607F079F9002801D005F057FF094886
:10DEF00007F044F9002801D005F050FF07F05CF965
:10DF000004490120491E08700EBD0000B8A002009F
:10DF10009D920200C501002030B5002414E0035D8D
:10DF20001D46303D092D01D8EBB20BE01D46413DA9
:10DF3000052D01D8373B04E01D46613D052D08D86D
:10DF4000573BDBB20B55641C9442E8D300231846C0
:10DF50000AE00020C04330BD0C5C0D186D78240130
:10DF60002C43CC54801C5B1C9042F5D3500830BD30
:10DF700000290DD0074B4A03D218120C491E49073D
:10DF8000805C490F01228A40104000D00120704778
:10DF90000020704700E0FFFFF0B59E4603460020DA
:10DFA0008446088070461C4C40030019060C01246E
:10DFB000012A01D0002527E000250EE05F5D002248
:10DFC00020469040074211D1521CD2B2082AF7D302
:10DFD000604600281AD16D1CADB2B542EED915E0ED
:10DFE000585D002227469740384204D1E800521C71
:10DFF000801808800AE0521CD2B2082AF2D3604688
:10E00000002803D16D1CADB2B542E9D90A8872452A
:10E0100001D900200880F0BD00E0FFFF70B5054683
:10E02000002916D00D4B4803C018040C491E4E079A
:10E03000285D760F01230146B340184001D0012A24
:10E0400009D0104300D00120012A05D09943295559
:10E0500070BD002070BD00201943F8E700E0FFFF0D
:10E0600070B50446059E049D2160A280A360084609
:10E07000A58111462661FDF77AF9A089C100A06843
:10E08000FDF775F906212069FDF771F970BDFFB53F
:10E0900004462169164609798068C9008A1D825A9A
:10E0A00081B0002A10D0029A002A12D00A1D855A87
:10E0B000002D0BD04158A38822684819D2188242FB
:10E0C0000BD32A46029811E000203080012005B0D1
:10E0D000F0BD091D405A308043E0571A3A46029875
:10E0E000FDF72CF90298EA1B2168C019FDF726F903
:10E0F000002E00D035800498012832D02169A26812
:10E100000879C000001D105A0A88801880B2088063
:10E11000A2882169904201D3801A08802169A288CF
:10E120004888401C80B2824201D8801A80B20A8896
:10E13000824200D148802169A26809790020C90083
:10E14000891D50522269A3891179481C834200D14C
:10E1500000205379994203D150712169087100E080
:10E1600010710020B3E7F7B504468088164682B0E8
:10E17000B04250D9002E4ED02269558811888D4268
:10E1800002D96B1AC31A02E08D4203D24B1B5B1EED
:10E190009BB200E003469E423DD88D4204D06D1CE8
:10E1A000ADB2A84200D800255580A088A9198142A7
:10E1B0000BD82168324648190399FDF7BFF820694A
:10E1C000711E42885118418012E0401B87B22168BD
:10E1D0003A4648190399FDF7B1F80398F21B0092EB
:10E1E000C1192068FDF7AAF8009A2069521E4280E2
:10E1F000226911795079814212D0401CA289C0B2A3
:10E20000824200D80020814219D1C000A268801D3E
:10E21000105A002802D0012005B0F0BD08460EE0DB
:10E22000C900A368891D595A002906D0401CA1893C
:10E23000C0B2814200D80020507120694079216924
:10E2400048712168A2684919C00011502069A1686D
:10E250004079C000001D0E52206900214079A2685B
:10E26000C000C943801D11520020D5E770B50A4D8A
:10E27000FF23EE1D1A46F93605E0047854402A5D66
:10E280005A40335D401C0C46491E89B2002CF4D123
:10E290001802801880B270BDF19B0200F0B51FB467
:10E2A00015461E460D4A0E4B28463146FDF71CFA10
:10E2B000009A90470C460746084A094B28463146C3
:10E2C000FDF76EF9009A90473A462346FDF70CFA9F
:10E2D000024A044BFDF77EFA05B0F0BDF168E38811
:10E2E000B5F8D43EB5F8E43E70B5002002F05AFA15
:10E2F0000446012243A105F051F8204600F036FC07
:10E30000042245A1204605F049F8204600F02EFCE5
:10E31000022246A1204605F041F8204600F026FCE6
:10E32000042247A1204605F039F8204600F01EFCE3
:10E33000042248A1204605F031F8204600F016FCE2
:10E34000082249A1204605F029F8204600F00EFCDD
:10E350004AA1204605F022F8204600F007FCC82517
:10E3600064222B4649A1204605F018F8204600F00B
:10E37000FDFB64232A4645A1204605F00FF8204600
:10E3800000F0F4FB6119EB067F250022ED052CC19E
:10E390000C3926462167643603200DC63FA120466E
:10E3A0000C3E04F0FBFF204600F0E0FB43A12046BA
:10E3B00004F0F4FF204600F0D9FB2946304605F072
:10E3C0001AFEFDF7DFFA02460B4642A1204604F092
:10E3D000E5FF204600F0CAFB4149304605F00BFE40
:10E3E000FDF7D0FA02460B463EA1204604F0D6FFC8
:10E3F000204600F0BBFB00F053F92146002002F05C
:10E4000093F970BD63686172202020203A20202596
:10E410003031640D0A000000696E74202020202035
:10E420003A2020253031640D0A00000073686F72B5
:10E43000742020203A2020253031640D0A0000008D
:10E440006C6F6E67202020203A2020253031640D2B
:10E450000A000000666C6F61742020203A2020259D
:10E460003031640D0A000000646F75626C65202015
:10E470003A2020253031640D0A0000002D2D2D2D6D
:10E480002D45786368616E67650D0A007831363D09
:10E4900025642C7931363D25640D0A002D2D2D2D56
:10E4A0002D496E746572706F6C6174696F6E28535C
:10E4B000704C696E6531290D0A000000783D5B30B3
:10E4C0002C322C345D2C793D5B302C322C315D0D9F
:10E4D0000A000000783D312C793D25660D0A0000C8
:10E4E00000004040783D332C793D25660D0A000040
:10E4F000F0B51FB484B00646002002900F463046A7
:10E50000079B069AFDF74CF80022D243FDF7DAF993
:10E5100005460C462AE00E9A28462146904701916E
:10E5200000900E9A304639469047019B009AFDF7BD
:10E53000E9F800221346FDF739FA02D2069507944E
:10E5400001E02E46274630463946079B069AFDF7DE
:10E5500027F80022D243FDF7B5F9054602980C468C
:10E56000401C80B20A49029088420AD0304639469F
:10E57000079B069AFDF7BEF8064A074BFDF72AFAF5
:10E58000C9D30F99029808802846214609B0F0BDEA
:10E59000FFFF000095D626E80B2E113E10B5002097
:10E5A00006F086F9002801D005F0F8FB10BD000048
:10E5B000F0B51FB482B00020009014461D460298AA
:10E5C000FFF76CFE06460F46029A20462946904702
:10E5D00032463B46FDF7FEF822462B46FDF78AF809
:10E5E00007460E461DE03C46354622462B4602981D
:10E5F000FFF754FE06460F46029A204629469047EA
:10E6000032463B46FDF7E6F822462B46FDF772F808
:10E61000074600980E46401C80B20C490090884284
:10E620000CD022462B4638463146FDF75DF84900AE
:10E630004908074A074BFDF7CDF9D4D30C99009848
:10E6400008803846314607B0F0BD0000FFFF0000EB
:10E6500095D626E80B2E113EF8B504460D460C4A19
:10E660000C4BFDF74FF80F4606460122204629467F
:10E67000FDF728F922462B46FDF744F832463B4683
:10E68000FCF78EFF044A054BFDF72EF8F8BD00009D
:10E690009A99999999990940CDCCCCCCCCCCFC3F96
:10E6A000F0B585B0002002F07DF8FF210131039024
:10E6B000FCF75DFE43A1039804F070FE039800F0A0
:10E6C00055FA474C474D20462946FFF7C5FF0191B3
:10E6D000009022462B4644A1039804F05FFE039865
:10E6E00000F044FA00204549FFF7B6FF0191009081
:10E6F0000022424B3CA1039804F050FE039800F026
:10E7000035FA3F4E3F4F30463946FFF7A5FF01919E
:10E71000009032463B4634A1039804F03FFE039834
:10E7200000F024FA384E394F30463946FFF794FF4F
:10E730000191009032463B462BA1039804F02EFE37
:10E74000039800F013FA324802AE00900022314BD9
:10E75000019620462946FFF7CBFE6C46228900929F
:10E7600002460B462CA1039804F018FE039800F013
:10E77000FDF90022214B26480096FFF719FF228958
:10E78000009202460B4630A1039804F007FE03985E
:10E7900000F0ECF90022364B1D480096FFF708FF09
:10E7A0002289009202460B4632A1039804F0F6FD3E
:10E7B000039800F0DBF90020039901F0B5FF05B0E4
:10E7C000F0BD00002D2D2D2D2D4E6F6E4C696E6508
:10E7D00061724571756174696F6E0D0A0000000009
:10E7E0009A9999999999E9BF783D25392E396620EA
:10E7F000793D25392E39660D0A00000000002040C1
:10E80000FEFFFF2DCF38DC3FC006A7B2E65300C0A5
:10E8100059E6010000002840446963686F746F6D19
:10E82000794571756174696F6E3A282D302E382CD8
:10E8300031322E302920783D25392E396620636DFE
:10E84000743D25640D0A00004E6577746F6E526149
:10E850007068736F6E3A28382C302920783D25393E
:10E860002E396620636D743D25640D0A000000009A
:10E87000000020C04E6577746F6E52617068736FD0
:10E880006E3A282D382C3029783D25392E396620CE
:10E89000636D743D25640D0A00000000F0B500238F
:10E8A0008E464C1E14E071460022CD1A6D1E0BE000
:10E8B000960031188C46875949688F4202D9815198
:10E8C00061464F60521C92B29542F1DC5B1C9BB2D8
:10E8D000A342E8DBF0BD30B50D46014687B00446E3
:10E8E0001C2210316846FCF729FD0FCC00F078F8A7
:10E8F000044629461C2210316846FCF71FFD0FCD47
:10E9000000F06EF8201A07B030BD7D2310B51B0152
:10E91000012806D0022823D0032842D004284FD053
:10E920005CE0087DC01A43001371087C401CC0B233
:10E93000C4081B1913714001D0700B7BC018D07034
:10E94000087AC30093700879C4081B1993704001BA
:10E95000507009784B08C0185070C80110703DE025
:10E9600010794008C01848611079D378C007000FAB
:10E970005B091843401E0861D078C006C00EC8600D
:10E980009078C0088860907853784007800E5B09C3
:10E990001843486050781278C006800ED2091043A0
:10E9A0001BE0087DC01A1070087C401C5070087B6A
:10E9B0009070087AD07008791071087850710DE065
:10E9C0001078C01848615078401E08619078C8607F
:10E9D000D07888601079486050790860002010BDB8
:10E9E0000FB410B5054907984018079002A8FCF726
:10E9F0005FFC10BC08BC04B01847000094F8FFFF8F
:10EA000013B5044601A8FCF711FC01464069044A0D
:10EA1000801848612C222046FCF790FC1CBD0000A9
:10EA20006C070000F8B5164C00260D4607466681B7
:10EA30000BE0134982B210313846FCF77FFC002D01
:10EA400001D0608928806681F8BD0A200AF018FB91
:10EA5000002001F0A7FE014600900122002003F0F3
:10EA600037FE0106090E02D0009800F045FA00209A
:10EA7000009901F059FE60890028E6D0D9E700002E
:10EA80000C00002010B5002001F08CFE0446014669
:10EA9000FA22002003F01CFE2146002001F044FE73
:10EAA00010BD000010B5064C2078012806D0E121E9
:10EAB0004902002004F04AF80120207010BD000037
:10EAC0000C000020F8B50D460746174C02E0012067
:10EAD0000AF0D6FAE0780128F9D00120E0700602A9
:10EAE000B54210D932463946002003F045FE207861
:10EAF000012804D132463946002004F00FF8FF3DCA
:10EB0000013DADB2ECE72A463946002003F034FE61
:10EB10002078012804D12A463946002003F0FEFF60
:10EB20000020E070F8BD00000C0000207CB5154608
:10EB30000E46002801D000F019F8002409E0325DEB
:10EB400007A1684604F02AFC684600F00FF8641C30
:10EB5000A4B2AC42F3DB04A000F008F87CBD0000D6
:10EB600025303278200000000D0A000010B5044660
:10EB7000FCF728FC81B22046FFF7A4FF10BD00007F
:10EB8000F0B5734C002687B0E680304601F00AFEEF
:10EB900001460690FA22002003F09AFD0106090EB4
:10EBA00002D0069800F0A8F9694D207901271535A3
:10EBB00000280BD001280ED0022819D1287902286C
:10EBC000FBD1E8781B2875D126712F71FFF76AFFFA
:10EBD000268127710DE0208900280AD064286ED292
:10EBE000401C20812979284602296BD0032968D04E
:10EBF000A5E000202781A070069E034680360246CD
:10EC00003146FEF7D1F853A0FFF7B0FF5FA1069899
:10EC100004F0C4FB0698FFF7A9FF65A1069804F06D
:10EC2000BDFB0698FFF7A2FF1C23059309226A4942
:10EC3000072002AB07C300210220019100901E2390
:10EC400066A269A1069804F0A9FB0698FFF78EFF5B
:10EC5000B0690ECE03910193029204903068009047
:10EC6000736870A1B2685B1C069804F097FB069865
:10EC7000FFF77CFF0A200AF003FA76A0FFF776FF81
:10EC80006079012818D0814E002420018019406845
:10EC9000FFF76CFF0A200AF0F3F9641CE4B2152CAC
:10ECA000F3D300E006E07AA1069804F077FB06981B
:10ECB000FFF75CFF2F7142E064202081FAE72AE031
:10ECC00000E023E02248002515307049C0782A0171
:10ECD0008A56824210D12801401800908168012094
:10ECE00088470098007B002804D019481530067129
:10ECF000268105E0278103E06D1CEDB2152DE6D3DA
:10ED0000152D1CD112481530067102E006714670AF
:10ED10002E70268113E06079012816D068A106982C
:10ED200004F03CFB0698FCF74DFB81B20698FFF718
:10ED3000C9FE2F716E702E7002202071A770002006
:10ED4000069901F0F1FC07B0F0BD6671F1E7000033
:10ED50000C0000200D0A2A2A2A2A2A2A2A2A2A2ACC
:10ED60002A2A2A2A2A2A2A2A2A2A2A2A2A2A2A2A03
:10ED70002A2A2A2A2A2A2A2A2A2A2A2A2A2A2A2AF3
:10ED80002A2A2A2A2A2A2A2A0D0A00002A57656CCA
:10ED9000636F6D6520746F207573652058534C2D1B
:10EDA0005368656C6C2856322E32290D0A0000001B
:10EDB0002A417574686F72203A205875536F6E67D8
:10EDC0006C69616E672E202851513A3533383736D9
:10EDD0003033290D0A000000E20700006943617228
:10EDE00065422D4D000000002A50726F64756374F7
:10EDF0003A2025732848573A253032642E25303280
:10EE0000642053573A253032642E25303264292845
:10EE1000253034642D253032642D25303264290D9F
:10EE20000A0000002A525443202020203A20253096
:10EE300034642D253032642D253032642025303263
:10EE4000643A253032643A25303264282564290D2D
:10EE50000A0000002A2A2A2A2A2A2A2A2A2A2A2AB0
:10EE60002A2A2A2A2A2A2A2A2A2A2A2A2A2A2A2A02
:10EE70002A2A2A2A2A2A2A2A2A2A2A2A2A2A2A2AF2
:10EE80002A2A2A2A2A2A0D0A00000000A09A020033
:10EE9000506C6561736520507265737320436F64B5
:10EEA000652C50726573732028456E746572292035
:10EEB000746F20656E64283C313053293A0D0A0086
:10EEC0004F76657274696D652C4175746F20657835
:10EED0006974205368656C6C2E5072657373205B87
:10EEE0004553435D206F72205B245D205374617233
:10EEF00074210D0A00000000F3B581B00E460198A0
:10EF000000F0ACFC0024364F364D5FE001986946B6
:10EF1000005D087001216846FFF7D4FD052E02D977
:10EF20000521798100E07E812D487A891030019990
:10EF3000FCF704FA2A4915310879002825D0012860
:10EF400002D002282AD03FE001988A78005D8854D8
:10EF50008878401CC0B2887001280BD004D94A7848
:10EF60001B2A0CD0242A0AD0022811D348780D2855
:10EF700007D00AE008781B2801D024280AD11B20DA
:10EF800000E00878C87002200871002088701BE03B
:10EF9000012819D108780D28F7D015E00198005DF7
:10EFA0001B2801D024280FD103200871CA78002023
:10EFB00001016B569A4203D14919097B002908D0F7
:10EFC000401C40B21528F3D3641CA4B2B4429DD3B4
:10EFD000FEBD00014019816800208847F4E7000069
:10EFE0000C000020A09A0200084A02215160084942
:10EFF0000B68002BFCD0906008680028FCD0002033
:10F00000506008680028FCD07047000000E501400F
:10F0100000E40140054801680029FCD0044A0021B1
:10F02000516001680029FCD07047000000E40140F5
:10F0300000E50140034901204860034801680029B8
:10F04000FCD0704700E5014000E40140F0B5002429
:10F05000FF268BB00136012527460694304606F080
:10F06000C3FB002807D054484068284203D03046EC
:10F0700006F0B2FB2C43361D6D007F1CB6B2042F88
:10F08000ECD3FF257D35284606F0AEFB002809D0DD
:10F09000284606F0A1FB6807044306AA01210020C8
:10F0A00006F086FB454D200714D001270026274295
:10F0B0000CD04348B200111808690969C004C00E99
:10F0C0008903AA58890F002A00D090477F00761C38
:10F0D000042EECD3002C6DDA00200890401E63E073
:10F0E000281940300779B906890E0091042141564C
:10F0F000491C49D009A9009805F0AAF9002843D075
:10F10000B8090190009805F00DF880002F5801987B
:10F11000002F02D0032802D00DE0032834D100983C
:10F1200008ABC20841079446985C490F01228A4007
:10F130001043624698540098052109078000401842
:10F14000072109024018006806A98003800F029079
:10F15000009805F07DF90028029802D0022802D01C
:10F1600012E0032810D10198032808D10298022840
:10F170001ED00221009806F0BAFA761CF6B2002FD3
:10F1800002D001990098B847641C052CA8D3002E22
:10F1900010D06A460121002006F00AFB069900986B
:10F1A000884207D00690089800263446099097E7D1
:10F1B0000321DFE70BB0F0BD00630040DC18002046
:10F1C0000065004070B50C468AB205460146012034
:10F1D00003F0A4FC04480078012803D1A1B228461A
:10F1E000FFF770FC70BD0000280000201CB5002453
:10F1F00001221720009423461146019406F0E2F9FB
:10F200000021172006F0A4FA0022152000942346BE
:10F210001146019406F0D6F900210A200AF068F898
:10F220000E490F4BC8610A202C3101220090920236
:10F2300001911846991A5030FEF712FF08485C21D8
:10F24000DC30FCF794F80648E121DC308460403083
:10F2500044754902012003F079FC1CBD2800002000
:10F26000F407002070B50024012807D00B2115A059
:10F27000FFF7A8FF7D26F600154D1AE001211720A3
:10F2800006F066FA0021172006F062FA114C2046BB
:10F2900009F0F6FE0121172006F05AFA204609F07F
:10F2A000EFFE70BD0A2009F0EBFE641CA4B2B4426C
:10F2B00002D2E87D0128F5D00121172006F048FA96
:10F2C00070BD000041542B51504F57443D310D004B
:10F2D00010090020B80B000038B5154C0123612837
:10F2E0000DD062280BD0134A00214D00AD186D7867
:10F2F000002D0BD0491CC9B20529F6D308E0A07136
:10F300000D4803750020607123720EE0052901D3BA
:10F31000012038BD49008D186B70505400950023B2
:10F320000A226946206C0AF0CAF8002038BD0000A5
:10F330005C0000204409002058080020F0B585B08A
:10F340000E460446102969D3B01E81B22046FEF74E
:10F350008DFFA1191E394A7F0B7F11021943884284
:10F360005CD1FA4F2246386B1032401C38630020C3
:10F370003871788221780392921E02200125019132
:10F3800000920C297ED007DC891F0B0004F049F89D
:10F3900006EF46EEFCEDEC46102974D005DC0E2994
:10F3A00040D00F293AD1EA4949E211296CD06029AD
:10F3B00034D1112E02D86420FEF78AFD0020B873E4
:10F3C000217DE27C0802104340BA78830490A27D3C
:10F3D000617D1002084340BAB8830190204617307F
:10F3E000FCF700F800BA010AA07E09020143D74ADF
:10F3F000F9631E32019803926B4623C31D3E2146DA
:10F40000B2B21B310020049B01F02AF8F98BD148DD
:10F41000814205D10720F8820020787105B0F0BD47
:10F420006020BFE1CA4910390A78012A00D108706A
:10F43000252EF3D3002001F0B5F90546064600233A
:10F440002C361A4629461846FDF7AEFC31460420F4
:10F45000039AFFF75AFA31462846FFF73CFA00288C
:10F4600000DA40420A2805DD002211461046039BBF
:10F47000FDF7E4FC002632462946304601F068FAE2
:10F48000A17D02E0D9E1CEE17EE0002908D0FF298C
:10F4900006D028464030828D914201D081850126D8
:10F4A000E17D002908D0FF2906D028464030C28DD2
:10F4B000914201D0C185012620461930FBF792FF09
:10F4C000217E0002084306D0411C04D0A96E81426F
:10F4D00001D00126A866217F002908D0FF2906D087
:10F4E00028466030027C914201D001740126617F80
:10F4F000002908D0FF2906D028466030827C91423E
:10F5000001D081740126A17F002908D0FF2906D0EF
:10F5100028466030427C914201D041740126E17F4F
:10F52000002908D0FF2906D028466030C27C9142CD
:10F5300001D0C17401262020205C002808D0FF28BB
:10F5400006D0294640318A8E904201D08886012615
:10F550002134607822780102284611434030C28E5F
:10F560008A4205D0C18605E065E160E157E11EE110
:10F57000002E04D000222946012001F0E9F9294695
:10F58000002001F0D1F849E70198092824D0039E12
:10F5900070783178000208436C4988846B48B178F0
:10F5A000C173002001F0FEF807466B48782201681D
:10F5B0003846FBF7C3FE6549002008740846818C75
:10F5C00016290BD0CA1FFF3AFA3A02D1C27B142A7D
:10F5D0001BD00D297ED0DDE01646D9E7C17B082976
:10F5E00079D10574F01CFBF7FDFE00BA000AB17971
:10F5F00000020843F864F01DFBF7F4FE00BA000AAD
:10F60000B17A00020843F864BFE038462C3000238A
:10F6100001901A4639461846FDF7C6FBF21C042035
:10F620000199FFF772F938460199FFF754F900285C
:10F6300000DA40420A2805DD0022F31C114610467C
:10F64000FDF7FCFB00223946104601F081F9717A82
:10F65000002909D0FF2907D038464030828D9142D9
:10F6600002D0818539480574B17A002909D0FF2973
:10F6700007D038464030C28D914202D0C185334810
:10F68000057430460C30FBF7ADFEF17A00020843FA
:10F6900007D0411C05D0B96E814202D0B8662B4814
:10F6A0000574F07B002809D0FF2807D03946603167
:10F6B0000A7C904202D0087424480574317C0029E9
:10F6C0000CD0FF290AD038466030827C914205D0A8
:10F6D000817401E042E05DE01C480574717C002902
:10F6E00009D0FF2907D038466030427C914202D0D1
:10F6F000417416480574B07C002809D0FF2807D053
:10F7000039466031CA7C904202D0C8740F480574F3
:10F71000F07C002809D0FF2807D0394640318A8E76
:10F72000904202D0888609480574B07D727D01023E
:10F73000384611434030C28E8A4202D0C186034807
:10F7400005740248007C01281FD023E05C000020E3
:10F750008C090020FEFF000004010020C17B062967
:10F7600018D105743179F2780902114349BA282277
:10F77000D155B17972790902114349BAB984317A04
:10F78000F2790802104340BAF88400223946012079
:10F7900001F0DEF83946002000F0C6FF2A490020BB
:10F7A00008742078FFF798FD38E6087036E60020E8
:10F7B00000F0F8FF02902C30002301901A46184602
:10F7C0000299FDF7F1FA0420009A0199FFF79DF8DC
:10F7D00001990298FFF77FF8002800DA40420A28D2
:10F7E00005DD002211461046009BFDF727FB002097
:10F7F000029900F099FF1A2E09D3207D617D000245
:10F8000040183883A07DE17D00024018F882787AA4
:10F81000002802D17D72FF20B8723D70FEE5002104
:10F820003974B870FAE5002038740320B870B88ACB
:10F83000401CB882F2E5BD70F0E5034944310A7816
:10F84000012AB2D0EAE500005C000020024901284C
:10F8500000D00020487070472800002010B5054AED
:10F860005278002A04D00A460146012003F056F9D6
:10F8700010BD0000280000200249012800D000200F
:10F8800008707047280000200148817A8172704713
:10F890002800002070B5104C064660780D460128FF
:10F8A0000ED00A4631460D48FEF75DFC00231A468D
:10F8B0001946E06909F003FE2078012804D007E02A
:10F8C0003046FFF7FFF870BD29463046FFF7FAF8DB
:10F8D0003C20E07170BD000028000020440800209A
:10F8E00003494A79012A00D00871887170470000E5
:10F8F00028000020002000F055FF044609F066FFB4
:10F90000054606F0C3F802460BA1204603F046FD6B
:10F910002046FFF72BF90220A080284609F058FA6C
:10F92000E08000222146042001F012F82146002048
:10F9300000F0FAFEFEE70000486172644661756CF3
:10F94000745F48616E646C6572282573290D0A0026
:10F95000F0B5FF4C0025207989B0FF281AD0FD486A
:10F960000068806E401C65D0FB480088B4287BD9B5
:10F97000032205210120FCF761FF0322042102205C
:10F98000FCF75CFF032205211046FCF757FF03221A
:10F9900002217AE06079401CC0B26071012827D052
:10F9A00014281FD3002205210120FCF747FF002265
:10F9B00005210220FCF742FF002205210320FCF76D
:10F9C0003DFF002205210420FCF738FF032100221F
:10F9D0000846FCF733FF002203210420FCF72EFF2A
:10F9E000257165717C21DD48FBF7C1FC09B0F0BDD4
:10F9F00003211D2005F04AFE03211E2005F046FECE
:10FA0000002204210120FCF719FF0022042102201A
:10FA1000FCF714FF002204210320FCF70FFF042150
:10FA200000220846FCF70AFF0022CD490120FDF71D
:10FA300099FBD7E70A2103A8FCF7E2FB002000F0BE
:10FA4000B1FE044600220146104600F081FF0398F3
:10FA5000A06600222146012000F07AFF2146002006
:10FA600000F062FEC2E7FFE7032200210120FCF75D
:10FA7000E5FE032200210220FCF7E0FE0322002124
:10FA80001046FCF7DBFE032200210420FCF7D6FE23
:10FA9000B448B549008806270126884229D00028A5
:10FAA00027D0642802D9E17900295ED0FF212D31C9
:10FAB000884202D9E179012974D0FF21F5318842C9
:10FAC00002D9E179022972D0AF218900884202D996
:10FAD000E179032972D0E1218900884202D9E179D4
:10FAE000042970D0A149884279D9E079052870D0DD
:10FAF00075E0E079002813D0022200210120FCF7F4
:10FB00009DFE022200211046FCF798FE02220021F1
:10FB10000320FCF793FE022200210420FCF78EFE56
:10FB2000E079030003F07DFC061F04090E13191F82
:10FB3000E078002817D1E67015E0E078002812D1AF
:10FB4000082008E0E07800280DD1E7700BE0E078AD
:10FB5000002808D10720E07005E0E078002802D1F5
:10FB6000012001F02DF9E57139E0E67100228049AC
:10FB70000120FDF7F7FA022204210120FCF75EFEC6
:10FB8000022204211046FCF759FE02220421032020
:10FB9000FCF754FE042102220846FCF74FFE1EE04B
:10FBA00000E004E00220E0710022724914E003202A
:10FBB000E071002270490FE000E004E00420E071F1
:10FBC00000226E4908E00520E07100226C4903E044
:10FBD000FFE76349E77100220120FDF7C3FA694896
:10FBE0000178012933D105706748007804281FD0B7
:10FBF00004DC02280ED0032829D104E0052810D007
:10FC0000182824D11BE0E078002801D10220E07000
:10FC10005EA01AE0E078002801D10320E0705EA029
:10FC200013E0E078002801D10420E0705DA00CE032
:10FC3000E078002801D10520E0705DA005E0E078C3
:10FC4000002801D10920E0705CA0FEF78FFF0121A0
:10FC500003A8FCF7D5FA3E48801C0078C1073D494F
:10FC60000B68996E9C4618D060339A7C574F7A4344
:10FC70008F18039A974201D300290ADADB7C534F8D
:10FC80007B43CF1A0123DB07FB18934229D30029BA
:10FC900027DAE189491CE18124E060331A7C4B4F6B
:10FCA0007A438F18039A974201D800290ADA5B7CBD
:10FCB000464F7B43CF1A0123DB07FB18934205D83D
:10FCC000002903DAE189491CE18100E0E581614610
:10FCD0004031898EE289914212D81D49891C3043F6
:10FCE0000AE0E58161464031898EE289914207D878
:10FCF00017494008891C4000022210430870E58122
:10FD00003348007801287DD01148083000788007FA
:10FD100078D5617A114F8900A83F0398785006AAD8
:10FD200001210020FCF710F8617A68464900008B39
:10FD3000C919088506AA02210020FCF705F8617A96
:10FD400068464900008BC919888706AA032141E04B
:10FD5000A8000020040100206E000020440A0020BA
:10FD600014A0020024150020FFFF00004C04000036
:10FD700010A0020018A0020020A002002CA0020087
:10FD80003CA0020055010020540100204B45592D94
:10FD9000534F532D310D0A004B45592D534F532DC1
:10FDA000320D0A004B45592D534F532D330D0A0088
:10FDB0004B45592D534F532D340D0A004B45592DAA
:10FDC000534F532D3241340D0A000000CC10000077
:10FDD000F80000200020FBF7B7FF617A6846490071
:10FDE000C919008B4031088206AA04210020FBF7C4
:10FDF000ABFF6846018B607A4200D2194032918491
:10FE0000401C00E00FE0C0B260720A280BD33846F5
:10FE100065720622FA497830FBF790FA00223946DB
:10FE20001F2000F095FDF748007801281CD1002024
:10FE300000F0B8FC079080300746024600210846D3
:10FE4000FBF782FFB8883A89F9886B4607C37B883D
:10FE50003A88EDA1079803F0A1FA0798FEF786FE0D
:10FE60000020079900F060FCEE48FD220178CB07E6
:10FE7000002B12D08B0726D511400170EA48A581CE
:10FE8000017801291FD006700421C1710672062273
:10FE9000DB49401CFBF752FA15E08B0713D51140E4
:10FEA0000170E1480178012908D006700421C17170
:10FEB00005720622D249401CFBF740FADB48006875
:10FEC0004030C08EA081D748D94F801E80790A2843
:10FED00009D28300D349401C891E039AC0B2FA504C
:10FEE00088710A2858D3CF48D14C801E8571883438
:10FEF00002E0012009F0C4F8607EC007F9D1607EFD
:10FF00000A2130436076CA48FEF7C8FC02206946E1
:10FF10003D6008836846008B39688200BA58401CEF
:10FF20008918396081B2684601830729F2D9062110
:10FF30003868FBF721F93860217EBD4A89002832F4
:10FF40005050207E401CC0B220761E2800D325765B
:10FF5000607E400840006076B24CA41EA089002854
:10FF60000FD0B248B34A00681288014640318B8DE9
:10FF7000934235D32030407AC00631D50022042187
:10FF800001E0002205210120FCF758FCA089AA4AC3
:10FF9000401E904200D2A081A24CA41EE07800280E
:10FFA00022D001283AD0082838D002287ED0032851
:10FFB0007CD004287AD0052878D0092876D0062865
:10FFC00075D0072800D011E500221146212000F04D
:10FFD000BFFC2046083001780222114301704EE137
:10FFE000C88D9042CDD3D1E765712078401CC0B256
:10FFF00020700128E7D0022806D00A2806D014284D
:020000040002F8
:1000000008D0E0D92570F1E46671EFE4607801284A
:10001000F8D0EBE460780028F4D0E7E48148801E53
:10002000007900281AD001285FD00122114610461D
:10003000FCF704FC012211460220FCF7FFFB012221
:1000400011460320FCF7FAFB012211460420FCF7BD
:10005000F5FB7448801E0571C570C7E40A2101A82C
:10006000FCF7CEF8002000F09DFB044607460198FF
:1000700078370002000CF88000222146104600F07C
:1000800067FC6848801EC0780128019829D00121AA
:10009000C9070843A0666948B880002221460120AC
:1000A00000F056FC00223946042001E028E08FE0F1
:1000B00000F04EFC2146002000F036FB5A48017843
:1000C000012908D006700321C171057206224C492E
:1000D000401CFBF733F95348801E05700179491C19
:1000E0000CE0A0665548401ED6E74E48801E0178B9
:1000F000322902D2491C017078E40221017175E4B1
:100100002179002903D0012959D02571B7E00228AF
:1001100008D0032832D0042830D005282ED0092852
:100120002CD03AE03F4FBF1D3878C00713D00022D3
:1001300011461046FDF716F8042200210120FCF7B5
:100140007DFB042200211046FCF778FB387840083C
:100150004000387021E0384A3949521C0120FDF72F
:1001600001F8042211460120FCF768FB0422022159
:100170001046FCF763FB38783043EAE72948801DD6
:100180000078C00709D100222E490120FCF7EAFFC0
:10019000012211460420FCF751FB23480178012974
:1001A00009D006700521C171E17801720622144957
:1001B000401CFBF7C3F825702079401C06E020782E
:1001C000032802D2401C207010E4022020710DE4AC
:1001D000002000F0E7FA064600220146104600F033
:1001E000B7FB31462031487AC2062DD41022104385
:1001F0004872012211461046FCF720FB27E0000060
:1002000094010020B8000020253035642C253035BD
:10021000642C253035642C253035642C253035642C
:100220000D0A0000AA0000207C0900200401002023
:100230001C0A002014010020FEFF0000234E0000D5
:100240003C9F020010A00200EF22104048720122E1
:1002500011460220FCF7F2FA012211460320FCF7B6
:10026000EDFA012211460420FCF7E8FA002231469B
:10027000012000F06DFB3146002000F055FAE570DA
:10028000C1E6000070B5104A0E4D0224137801211A
:1002900000280ED001280BD169701046012B07D021
:1002A0000170C471017206220849401CFBF746F830
:1002B00070BD00266E701046012BF9D00170C4711C
:1002C0000672F0E7A80000207C09002094010020BD
:1002D00070B501241A4D012819D00121112005F013
:1002E00043FA0121162005F03FFA0022114610467C
:1002F000FCF738FF2878012808D02C70EC71002119
:10030000297206220F49681CFBF718F870BD0E48C9
:1003100040780028FAD00021112005F025FA0021AC
:10032000162005F021FA094A09490120FCF71AFFB5
:1003300028780128EAD02C70EC712C72E1E70000DB
:100340007C09002094010020A8000020FFFF00008D
:100350000C9E020004490A699200D20F02700969DA
:100360004900C90F4170704700050050F8B50546B7
:10037000184C02E0012008F083FE607EC007F9D12E
:10038000607E0121084360761248227E0021603899
:100390009300C658521C370E8E00AF55C7587619B9
:1003A0003F0C7770C75AD2B23F0AB770C35CF37084
:1003B0001E2A00D30022491CC9B21E29E8D30648D0
:1003C00089000078C007C00F6854607E4008400074
:1003D0006076F8BDA40A0020AA00002010B50446EB
:1003E00006291DD31948A178827A914218D1E17863
:1003F000C07A814214D12079012812D0022818D065
:1004000003280DD1002212490120FCF7ABFE11494F
:1004100001200870104908707D2010498001088073
:1004200010BD6079002801D00128F9D1FFF750FFF5
:1004300010BD002206490120FCF794FE60790028D7
:1004400001D00128F4D1FFF71DFF10BDA800002046
:1004500010A002005501002054010020600100207E
:10046000FFB581B004461D46002601200D9F00F017
:1004700099F90122920200900299FAF75FFF604811
:10048000002C02D0012C36D1B0E001220399920257
:10049000914202D00A99A9422CD104464078030027
:1004A00002F0BFFF0504041E7C978F000C98002803
:1004B00020D0FF20013085421CD865800020A0603C
:1004C0000C982070002000F06DF92021E060FAF710
:1004D0004EFF00221146012000F0A8F802206070B3
:1004E0006088A84206D122780C998A4202D10A99E2
:1004F000814201D901267BE0E068FDF739FD002843
:1005000017D10A9A009900F091F801220A99E0683F
:10051000FDF784FD0020A268216905E0009B1B5CBB
:10052000401C9A1880B2491C039B9842F6D3A260E3
:1005300021612B4600223946E068FDF72DFDA5809C
:100540000020E3680246995CCD0701D0401C80B2D0
:100550008D0701D5401C80B24D0701D5401C80B2EB
:100560000D0701D5401C80B2CD0601D5401C80B2DC
:100570008D0601D5401C80B24D0601D5401C80B2CD
:10058000090601D5401C80B2521C92B2202ADAD34F
:10059000E080388800282BD103206070A3680B9876
:1005A000834211D00120C043388016A10B9A0098D5
:1005B00002F0F4FE0098FAF705FF81B20098FEF70A
:1005C00081FA0020607013E00020C04338800420CE
:1005D00060700020E16800F0A7F800220220009976
:1005E00000F024F810490220087001E00021417059
:1005F0000120009900F098F8304605B0F0BD0000E9
:10060000E00000204941502053554D204552523AB8
:10061000E88EB7E58F9628256C6429E8AEA1E695AB
:10062000B028256C642900007B01002070B50025EE
:10063000002806D001280BD0022810D003282BD187
:1006400027E09002154A80185242FDF7ABFB23E0E9
:10065000134841690020491EFDF7B8F81CE000204E
:1006600000F0A0F8044600220146104600F070F9A0
:100670000C480D492060086960608868A06000220D
:100680002146012000F064F92146002000F04CF8DA
:1006900002E06420FDF71CFC284670BD00FCFFFF53
:1006A000F414002021436577E0000020F8B5154CD4
:1006B0000026E078401CC0B2E070052821D3002756
:1006C000E770A07800281CD0002000F06BF82246CC
:1006D00005460770183228787100135C401CC0B2C0
:1006E0005E1828700628F6D33346E28906A128460C
:1006F00002F054FE2846FEF739FA2946002000F0A1
:1007000013F8F8BD5401002044656275674F757495
:100710003A20436F756E742D25642C4B65793D2509
:1007200030386C780D0A000070B51B4C06462078F6
:100730000D46012803D100F085F800202070012229
:10074000002E0BD0012E1BD11448281AC117890D79
:10075000081880120006000E13D018E01048281A5E
:10076000C117090E08180004000E062805D20A4910
:1007700008310B68824093430B606078401E6070C4
:1007800070BD05480C300168490849000160E078F7
:10079000401EE07070BD0000C8000020F410002072
:1007A000F40A0020F8B5244D0746287800240128D3
:1007B00003D100F047F8002028700120002F02D05C
:1007C000012F32D11CE01C4A083211680346A340B5
:1007D000194210D1A04001431160062C25D21749BF
:1007E000200246186878401CC0B26870A97881421F
:1007F0001BD2A87019E0641CE4B2062CE6D314E006
:100800000D4A0C3211680346A34019420FD1A04093
:10081000014311600A49A0024618E878401CC0B2A2
:10082000E8702979814200D228713046F8BD641CF5
:100830002406240EE7D0F8E7C8000020F40A0020C0
:10084000F4100020024900200860091D086070476C
:10085000D0000020F0B52A4E87B0307800284CD068
:100860000020FFF79FFF00270446059730780028F7
:100870003ED005AA2146202000F06AF820466030CC
:10088000457F037FC27E817E019102A92CC1417EFA
:100890000091007E7D21090143182046803019A176
:1008A000059A0546069002F079FD2846FEF75EF9A6
:1008B0000025A90062586900091908464030838C58
:1008C000008A0193009002928B8F0A8D19A10698DD
:1008D00002F064FD0698FEF749F96D1CEDB20A2D91
:1008E000E7D30598E121401C090105908842BDD35A
:1008F000377021460020FFF717FF07B0F0BD00005A
:10090000F800002028253034642944617465546956
:100910006D653A20253034642D253032642D253024
:10092000326420253032643A253032643A25303240
:10093000640D0A00202025303564202530356420E0
:1009400025303564202530356420256C640D0A007F
:10095000F7B50546002094B014460346024601460A
:100960000890F848406808F0F1FCF64F0026103770
:10097000042D7DD00ADC002D14D001273F07012D66
:1009800017D0022D1ED0032D73D1C4E0052D71D0D8
:100990000120C004EC491F2D6DD0202D6CD0212DDD
:1009A000F2D1FBE1E7487822C1681598FAF7C6FC56
:1009B000F8E13969EB208002401A78221599FCF79A
:1009C0004DFDDDE10020FFF7EDFE054601200007AB
:1009D0000169EB208002401A78222946FCF726FDA7
:1009E0002078012869D1D94841690020491EFCF7C7
:1009F000EDFE2E872F466E87012020373877284658
:100A00007E7706213E30FAF7B2FCD1A06864284612
:100A1000012140300172797AFB22114049084900D6
:100A200095221140BE72FE7201222A7402224906EA
:100A3000C272490E1122114379720021C943E9643F
:100A4000A966322181856421C18529462A22603127
:100A50000A7426228A742D224A743722CA74052108
:100A60008186891FC186BC49A981BC48E88104E010
:100A700076E0A1E1ABE058E184E1AE74EE746E740F
:100A8000C820287501226A75A875E8752884042095
:100A900028766876A876E87628776877A877E87762
:100AA000BE70AF48A884E9843E723E737E73BE7305
:100AB000FE7328866E86AE86EE86AA4828600020E1
:100AC00023210126485536073069EB27BF02381A23
