:020000040800F2
:10C00000483F0120D9C200081D020308D9C5010814
:10C01000EDDA0208552F0108E98C03080000000042
:10C0200000000000000000000000000001580308AC
:10C03000DD570108000000002FE200089D140308EE
:10C04000F3C20008F3C20008F3C20008393D030838
:10C05000F3C20008F3C20008F15D0108F55E0108B3
:10C06000355F0108755F0108B55F0108F3C200087C
:10C07000F3C20008F3C200081D540108F3C200080F
:10C08000F3C200085D540108F3C20008F3C20008BF
:10C09000F3C20008F3C20008F3C20008F15F010810
:10C0A000F3C20008F3C20008F3C20008F3C200089C
:10C0B00065670308D1670308F3C20008F3C20008EC
:10C0C000F3C20008F3C20008F3C20008F3C200087C
:10C0D0000D570308FD750308B9760308797703083F
:10C0E000315E0108D538030835290308F3C200087A
:10C0F000F3C20008F3C20008F3C20008F3C200084C
:10C10000F3C20008A9430308F3C20008415703081B
:10C11000F3C20008F3C20008F3C20008F3C200082B
:10C12000F3C20008F3C20008F3C20008A1540108DA
:10C13000F3C20008F3C20008F3C20008F3C200080B
:10C14000F3C20008F3C20008F3C200080D29030877
:10C15000F3C20008F3C20008C5540108F3C2000886
:10C16000F3C20008F3C20008F3C20008F3C20008DB
:10C17000F3C20008F3C20008F3C20008F3C20008CB
:10C18000F3C20008F3C2000800F002F800F095F8CE
:10C190000AA090E8000C82448344AAF10107DA4522
:10C1A00001D100F08AF8AFF2090EBAE80F0013F0DF
:10C1B000010F18BFFB1A43F001031847EC7B060080
:10C1C0000C7C06000A444FF0000C10F8013B13F001
:10C1D000070408BF10F8014B1D1108BF10F8015BE0
:10C1E000641E05D010F8016B641E01F8016BF9D1D3
:10C1F00013F0080F1EBF10F8014BAD1C0C1B09D12A
:10C200006D1E58BF01F801CBFAD505E014F8016B9B
:10C2100001F8016B6D1EF9D59142D6D3704700002D
:10C220000023002400250026103A28BF78C1FBD83F
:10C23000520728BF30C148BF0B60704766293DF0E8
:10C24000BA85692900F0A281642900F09F817529CF
:10C2500000F09C816F2900F05482782900F09382CD
:10C260000368DB0928BF41F08001632901F01B81CD
:10C27000732901F02081E32901F03E8100207047FD
:10C280001FB53DF08EFD9DE8030000F076F801F04B
:10C29000B3F90400002000213DF026F8401C606046
:10C2A000002000213DF00AF8E06001F0CBFB1FBD4B
:10C2B00010B5002001F0A4FB10BD01F01BFB1146DE
:10C2C000FFF7DEFF38F0D4FD01F03EFB03B4FFF7CB
:10C2D000EFFF03BC37F07DFA094880470948004763
:10C2E000FEE7FEE7FEE7FEE7FEE7FEE7FEE7FEE726
:10C2F000FEE7FEE704480549054A064B7047000083
:10C300008965030889C1000848390120483F012098
:10C31000483B0120483B012072B6704762B6704727
:10C32000EFF3108072B6704780F31088704730BF0B
:10C33000704720BF7047B0FA80F0704790FAA0F0C5
:10C34000B0FA80F0704790FAA0F0704770477047DD
:10C35000704738B504460A4600206946AFF30080AE
:10C36000002808BF38BD02460099204600F0F1FDC4
:10C37000012038BD012001F0F2B8F8B5AFF300801C
:10C38000054600200C46102000BF0646A819A04212
:10C390000DD9324669460020AFF30080070008BF80
:10C3A00001F0DDF80098A04218BF0546C41900F05E
:10C3B000C3FD05600746F01D20F00700461928461A
:10C3C00000F0C0FDB44208BFF8BDA21B314638687A
:10C3D000BDE8F84000F0BDBD70B5064600F0ACFD0C
:10C3E000056806F10B0020F00704B4429CBF002052
:10C3F00070BD2B466A68BAB11068A04210D304F130
:10C40000080188423CBF5068586007D35168101932
:10C4100041601168091B016058601460101D70BDF7
:10C4200013465268002AE7D121462846FFF791FFBC
:10C430000028DED170BD70B50446051F00F07CFDFC
:10C440000068002C14BF446870BD002C18BFAC42BB
:10C450003CBF20466468F8D301680A18AA4218BF96
:10C46000456003D12A6805461144016028684119D6
:10C47000A1421CBF6C6070BD61686960216808449E
:10C48000286070BD0FB4044910B503AA029801F0EA
:10C4900017F810BC5DF814FB4C0700200FB41CB556
:10C4A000084B06AA7B4469460090059800F0D9FF26
:10C4B00004460020694600F0E7FF20461CBC5DF8FA
:10C4C00014FB0000E10F000070B5044685690068A8
:10C4D000C10601D5302600E02026C00707D070BD78
:10C4E000D4E9012130469047206A401C20626D1E2D
:10C4F000F6D570BD70B5044685690078C00707D1D0
:10C5000070BDD4E9012120209047206A401C2062A0
:10C510006D1EF6D570BD09684A0501D540B2704759
:10C52000C905FCD500B2704709684A0501D5C0B2FB
:10C530007047C905FCD580B2704770B50C460546FA
:10C54000012A05D02878800600D5EA69002302E098
:10C55000012305E05B1C934202D2E05C0028F9D184
:10C56000A869E618C01AA861286A184428622846F3
:10C57000FFF7AAFF04E0D5E9012114F8010B904769
:10C58000B442F8D32846FFF7B5FF70BD2DE9F0415E
:10C590000646002410687529314616A510D0FFF70D
:10C5A000BAFF002802DA404213A507E031688A0783
:10C5B00001D512A502E0490704D511A5012401E027
:10C5C000FFF7B2FF00210A2206F1240709E0B0FBC1
:10C5D000F2FCB0FBF2F302FB1C003030785418463A
:10C5E000491C0028F3D123462A463046BDE8F041D5
:10C5F00000F0C9BC000000002D0000002B0000006E
:10C60000200000002DE9FF5F15468A460446DFF84A
:10C61000AC80F8440027D8E900103E46CDE9001070
:10C6200010E03AF816106A4602A800F071FF411CAB
:10C6300007D02178890603D5E269391891420DD8CF
:10C640000744761C2078800602D5E069B84205DDF3
:10C65000AE42E6DB3AF816000028E2D1A069C01B22
:10C66000A0612046FFF730FFD8E90010CDE90010A7
:10C67000002017E03AF818106A4602A800F048FFB8
:10C68000B0F1FF3F81460BD000250DF1080B05E00E
:10C69000D4E901211BF8050090476D1C4D45F7D3E7
:10C6A00008F10100B0428046E4DB206A3844206291
:10C6B0002046FFF71FFFBDE8FF9F000066650600EC
:10C6C00030B4002100F1240408E002F00705D2088C
:10C6D000303542EA4372DB086554491C52EA0305CF
:10C6E000F3D10468002310A2250707D5A40600D4BF
:10C6F00021B1C46901230DA2641EC46130BC00F0E5
:10C7000042BC10B5044621461068FFF70DFF0246F3
:10C710002046BDE810400023D2E7D21D22F00701D9
:10C72000D1E90023CCE70000000000003000000049
:10C73000F0B40D460188090502D5214C7C4402E085
:10C740001F4C7C440E34002100F1240608E002F066
:10C750000F071209E75D42EA03721B097754491C6F
:10C7600052EA0307F3D102780023120704D5702D93
:10C7700006D009B1022311342246F0BC00F003BCFC
:10C7800001231034F8E770B504460D4621461068C1
:10C79000FFF7CAFE024629462046BDE87040002346
:10C7A000C6E7D21D22F00703D3E90023C0E70368E0
:10C7B000126843F0200303600823C3610023B7E736
:10C7C000446406002DE9F05F894604464FF0000AF4
:10C7D000DFF874B1FB44C0F820A02046E168884728
:10C7E000002874D0252806D0D4E901219047206A7A
:10C7F000401C2062F1E700265F462046E16888473A
:10C800002028054607DB312D05D2781910F8200CB9
:10C8100008B10643F1E7B00701D526F00406C4F8D5
:10C820001CA00027C4F818A02A2D09D0284636F0ED
:10C83000C9FF38B304EB8708303DC8F8185019E039
:10C8400059F8041B204604EB87029161E168884790
:10C85000012F054618D1E069002820DA26F02006CD
:10C860001DE0D8F8180000EB800005EB40003038E0
:10C87000C8F818002046E1688847054636F0A2FF50
:10C880000028EED1012F0AD02E2D08D12046E168D4
:10C8900088477F1C0546022F46F02006C4DBA069AE
:10C8A000002803DA404246F00106A061F00701D0FB
:10C8B00026F010066C2D0BD0682D09D04C2D39D0E8
:10C8C0006A2D35D0742D35D07A2D33D016E038E06E
:10C8D000E1682F4620468847B842054609D16C2FAB
:10C8E00026D04FF48060E16806432046884705461D
:10C8F00004E06C2F1AD04FF4807006430DB3A5F1FD
:10C900004100192802D8203546F400664A462946D7
:10C91000204626604E46FFF791FC80B101280BD0DF
:10C92000F61D26F0070000F1080956E74020E4E76D
:10C930008020D8E70020D6E706F104094DE7284615
:10C9400052E7206ABDE8F09FD463060010B50020CE
:10C9500000F0FEFDFFF7ACFCBDE81040012036F012
:10C9600038BF30B505460B462A4613F8014B12F87E
:10C97000010B08B1A042F8D01CB1002802D06D1CF8
:10C98000F1E7284630BD40EA0103024630B59B0777
:10C9900010D14FF0013400E008C208C91D1B9D43AF
:10C9A00015EAC41FF8D013F0FF0102F8011B0DD0E7
:10C9B0001B0AF8E711F8013B002B02F8013B05D0F8
:10C9C00011F8013B002B02F8013BF3D130BD10B54B
:10C9D000431C02E010F8011B71B18107FAD14FF03E
:10C9E000013202C88C1A8C4314EAC211F9D0C01A61
:10C9F0000A0603D0C01E10BDC01A10BD0A0401D023
:10CA0000801E10BD0902FCD0401E10BD421E12F84F
:10CA1000013F002BFBD111F8013B002B02F8013B39
:10CA2000F9D17047032A40F2308010F0030C00F077
:10CA3000158011F8013BBCF1020F624498BF11F858
:10CA400001CB00F8013B38BF11F8013BA2F1040211
:10CA500098BF00F801CB38BF00F8013B11F0030389
:10CA600000F06780083AC0F0088051F8043B083AAB
:10CA700051F804CBA0E80810F5E7121D5CBF51F88F
:10CA8000043B40F8043BAFF30080D20724BF11F809
:10CA9000013B11F801CB48BF11F8012B24BF00F86E
:10CAA000013B00F801CB48BF00F8012B7047431A47
:10CAB00028BF9A427FF6B6AF032A1044114440F2D1
:10CAC000268010F0030F1EBF11F8013D521E00F822
:10CAD000013D10F0030F7FF4F6AF11F0030300F0F7
:10CAE0005885083AC0F00B8051F8043D083A51F8D7
:10CAF00004CD40F8043D40F804CDFFF7F3BF121D0C
:10CB00005CBF51F8043D40F8043DAFF30080D2070C
:10CB100024BF11F8013D11F801CD48BF11F8012CD7
:10CB200024BF00F8013D00F801CD48BF00F8012CFA
:10CB3000704710B5203AC0F00B80B1E81850203A89
:10CB4000A0E81850B1E81850A0E81850BFF4F5AFAD
:10CB50005FEA027C24BFB1E81850A0E8185044BF37
:10CB600018C918C0BDE810405FEA827C24BF51F8A4
:10CB7000043B40F8043B08BF7047D20728BF31F898
:10CB8000023B48BF11F8012B28BF20F8023B48BFE9
:10CB900000F8012B704702F0FF0343EA032242EA48
:10CBA000024200F002B84FF000020429C0F01280E7
:10CBB00010F0030C00F01B80CCF1040CBCF1020F50
:10CBC00018BF00F8012BA8BF20F8022BA1EB0C0125
:10CBD00000F00DB85FEAC17C24BF00F8012B00F81B
:10CBE000012B48BF00F8012B70474FF0000200B541
:10CBF000134694469646203922BFA0E80C50A0E880
:10CC00000C50B1F12001BFF4F7AF090728BFA0E82D
:10CC10000C5048BF0CC05DF804EB890028BF40F8F9
:10CC2000042B08BF704748BF20F8022B11F0804F3B
:10CC300018BF00F8012B70474FF0013C50F8042B4F
:10CC400051F8043B9A4221D1A2EB0C03934313EA1F
:10CC5000CC1317D150F8042B51F8043B9A4215D14C
:10CC6000A2EB0C03934313EACC130BD150F8042B23
:10CC700051F8043B9A4209D1A2EB0C03934313EA07
:10CC8000CC13DBD04FF00000704700BFD01A01BAC0
:10CC9000B1FA81F101F0180122FA01F0CB40C1F1A3
:10CCA0002001DBB2C0B2C01A2CFA01F3D11A9143B1
:10CCB00011EAC311E6D17047014900F0D9B800006C
:10CCC000BC38012010B503681C1404EB21449BB24E
:10CCD00089B2194494FBF2F302FB134394FBF2F480
:10CCE00001EB034393FBF2F102FB113193FBF2F3EF
:10CCF00001E05B1E11440029FBDB016003EB0440F3
:10CD000010BDF0B504464FF0FF3585B000680490C3
:10CD100060680290A0680390E0680190206900902C
:10CD2000666906F18040B0F1004F7CD83C220021BA
:10CD300004A8FFF7C7FF3C22014602A8FFF7C2FF85
:10CD40001822014603A8FFF7BDFF411E40F2B5526D
:10CD500001A8FFF7B7FF0C22074668460021FFF73E
:10CD6000B1FF414B00EB8700304400267B4411E0CB
:10CD7000511A01910099491C0229009102D00C29F5
:10CD800008D105E0810705D00199491C019101E016
:10CD9000401C00960099019A595C9142E8DD009987
:10CDA000012906D11C2A04D1810702D00221CDE934
:10CDB0000016A0F146018B293CD2DDE9006100227A
:10CDC00002E09F5C521C3944B242FADB012E02DDC4
:10CDD000820700D0491E40F2B55340F26D16C217CB
:10CDE00000EB927292105A4300F0030303FB0622F9
:10CDF00083070A4400D1521E039E02EB4203049FA4
:10CE000006EBC303029EC3EB031306EB8303174E2B
:10CE100033441E149BB2C6EB0616C3EB0313B600D5
:10CE200007EB830300E005E006EB134666F31F43C0
:10CE3000360C02D0284605B0F0BD80C4029E40C426
:10CE4000039E40C4019E761C44F80C6B009E44E98E
:10CE500002600720521C92FBF0F600FB162084E8CB
:10CE600023001846E7E700004D5E0600A039CEFD1E
:10CE700070B50C46016800204A1C3ED03C22B1FB34
:10CE8000F2F302FB1313B1FBF2F12360B1FBF2F3F7
:10CE900002FB1313B1FBF2F118226360B1FBF2F352
:10CEA00002FB1313B1FBF2F146F2E0320A44072110
:10CEB000A360B2FBF1F301FB132140F2B553B2FBC7
:10CEC000F3F5A161B2FBF3F103FB15228900B2F582
:10CED000B77F08D39B10521EB2FBF3F52944B2FB77
:10CEE000F3F503FB15220F4BE261616189077B4477
:10CEF0000CD03B2A0AD3521C08E02C212046FFF715
:10CF000074FE0120E0600AE0521A401C195C914254
:10CF1000FAD9521CC4E903204FF0FF3020622046AA
:10CF200070BD0000CB5C0600704770477047000082
:10CF300000487047E838012000487047F038012069
:10CF40007047704700210160C0E901107047102050
:10CF50007047034640688C46002818BF88423CBF93
:10CF600003464068F8D318681844884207D00CF18B
:10CF7000030020F00700001D411A521A0146081D47
:10CF80000A60FFF758BA2DE9F0470D4699469246D8
:10CF9000044600F124080168880604D5E06921F000
:10CFA0001001216000E00120A84201DD471B00E0E4
:10CFB0000027A1697A1902EB0900081AA0612078FC
:10CFC000C00602D42046FFF77FFA002608E0D4E925
:10CFD00001211AF806009047206A401C761C206246
:10CFE0004E45F4DB2078C0060AD52046FFF76CFAE0
:10CFF00006E0D4E9012130209047206A401C2062DD
:10D00000381EA7F10107F4DC07E0D4E9012118F884
:10D0100005009047206A401C2062281EA5F10105EA
:10D02000F3DC2046FFF766FA2078000602D50220DE
:10D03000BDE8F0870120FBE770472DE9FF4F0C4664
:10D040001E464FF0FF378BB0D2E90001DDF860805B
:10D050000A908A46C1F30A5505B93D4600210846A3
:10D060004FF00000BAF1000F00F4400005DA00EBC9
:10D0700080004FF4400101EA50004FEA9059B9F1A5
:10D08000010F00DDB9460A9850EA4A000ED044F676
:10D090001050A5F2FF3545432F14B8F1000F1ED0F4
:10D0A0007542291E1EDDC9F100021CE0B8F1010F16
:10D0B0004FF0000001D0302103E0F24305E021549D
:10D0C000401CB042FBDB30460022002121540B996A
:10D0D000C1F80880C1E900200FB0BDE8F08FBD1B8A
:10D0E0006D1CDEE74A4600DA694206A800F012FB32
:10D0F00006AB93E8070003AB83E8070050460A99A4
:10D1000000F0B2FC8DE80700A0F500501F38009039
:10D110000398002D0ADD42F21F014A46084400230D
:10D1200003A90390684600F01BFF09E0A0F500503A
:10D130004A461F38002303A90390684600F025FFE4
:10D140008DE807000004000C03D04FF0FF304108C9
:10D1500000E01046B8F1000F03D0002200921546FF
:10D160001EE0751E05D400F04FFA303262556D1E78
:10D17000F9D5B3460122084302D000227F1C04E007
:10D180002078302801D100227F1E002A099784D000
:10D190001DE0112D07DA00F037FA303262556D1CB0
:10D1A00050EA0102F5D1084302D00098C8B10EE060
:10D1B0000021681E05E0235C625C63542254401E1B
:10D1C000491C8142F7DBAB46A81B401E099000209A
:10D1D00004F80B000B98099AC0F80880C0E9002BEE
:10D1E0007AE711264FF0000857E72DE9F04F8846FF
:10D1F0000446D21D22F0070191B0D1E90001CDE92A
:10D200000A0136F015FA02460B98C00F01D02D2006
:10D2100007E02068810701D52B2002E0202101EAE8
:10D22000C000032A099001D0072A05DB03464146C6
:10D23000204600F02FFA0BE12078800601D5E06946
:10D2400000E00620B8F1650F814606D0B8F1660F00
:10D2500018D0B8F1670F70D131E00020B9F1110F8B
:10D26000009001DB112301E009F101030AAA01A9E1
:10D270000CA8FFF7E2FEDDE90C70002609F10105BC
:10D28000834647E001204B4600904FF000470AAA32
:10D2900001A90CA8FFF7D1FEDDE90DB00C995D46A0
:10D2A000002610B909F101000D18B9EB050003D4EF
:10D2B000C0F1FF3609F10105A5EB09002BE0B9F13A
:10D2C000010F01DA4FF001090020B9F1110F0090B0
:10D2D000484601DD112300E003460AAA01A90CA873
:10D2E000FFF7ABFEDDE90C704D4600268346207843
:10D2F00000070AD4AB4500DA5D4601A8012D04DD24
:10D30000411911F8011C302907D04F4502DA17F1F5
:10D31000040F04DA012082460FE06D1EEEE7002FB5
:10D3200002DCED1B3E4403E0781CA84200DD7D1CBE
:10D33000B81B00F1010A4FF000472078000703D422
:10D34000AA4501DB4FF0FF3A0021B7F1004F0DF184
:10D3500043088DF8431024D002202B23002F01DA3C
:10D360007F422D230A21021EA0F1010000DC5FB1E3
:10D3700097FBF1FC97FBF1F201FB1C7C17460CF1CB
:10D38000300C08F801CDEEE7A8F101000370218808
:10D39000090501D5452100E06521A0F1010800F84B
:10D3A000011C09980FA9A1EB0807FF1D00B101207E
:10D3B000411901EBEA70A1693844081A401EA061C6
:10D3C0002078C00602D42046FFF77EF8099828B1DD
:10D3D000D4E901219047206A401C20622078C006D1
:10D3E00022D52046FFF770F81EE0002E04DBB3457F
:10D3F00002DD01A8805D00E03020D4E901219047E2
:10D40000206A401C2062761CAAF101005FEA000A33
:10D410000AD100F0F1F8C0680168405CD4E901214C
:10D420009047206A401C2062281EA5F10105DCDC23
:10D4300007E0D4E9012118F8010B9047206A401C4D
:10D440002062381EA7F10107F3DC2046FFF752F8EF
:10D45000032011B041E6000001694A1C026108780E
:10D46000704700B58FB0CDE9013100210591054924
:10D470007944CDE9031011466846FFF7A3F90FB0D0
:10D4800000BD0000E5FFFFFF0A6802F8010B0A601B
:10D49000704710B5436913B1AFF3008001E0FFF7A7
:10D4A0004CF8012010BD127800F124010A7000220E
:10D4B0004A700122EDE711684FF0FF32E9E7000002
:10D4C000074B70B50D467B44FFF7CBFF044628465B
:10D4D00037F021FA10B14FF0FF3070BD204670BD1B
:10D4E0006177030010B5436913B1AFF3008001E029
:10D4F000FFF788F8012010BD128800F12401828412
:10D500000022C2840122EDE711684FF0FF32E9E703
:10D5100070B516460C46054600F066F8036893F8A9
:10D520000101012806D0FF2C0FD8185D68B1012039
:10D530002C7070BDD3F807013246214603F2071361
:10D5400003442846BDE8704018474FF0FF3070BDD7
:10D5500010B500F057F9BDE8104000F04DB910B516
:10D5600000F068F9BDE8104000F046B9431A28BF42
:10D570009A427FF6DEAA104410F0030F11441EBF3A
:10D5800011F8013D521E00F8013D10F0030F7FF429
:10D59000F6AF103AC0F00A8010B531E91850103AD1
:10D5A00020E91850BFF4F9AFBDE81040530724BF7D
:10D5B00031E9081020E9081044BF51F8043D40F853
:10D5C000043D12F0030F08BF7047D20728BF31F89F
:10D5D000023D48BF11F8012C28BF20F8023D48BF8A
:10D5E00000F8012C7047000010B500F005F8001D90
:10D5F00010BD00BFF5BC030000487047083901208A
:10D60000004870471C39012030B5B0F10A024FEADA
:10D61000900E71F100034EEA817EB0EB0E0061EBDB
:10D6200091014FEA101E4EEA017E10EB0E0041EB15
:10D6300011114FEA102E4EEA016E10EB0E0041EB75
:10D6400011214FEA104E4EEA014E10EB0E0041EB55
:10D650001141401841F100014FEAD00040EA417009
:10D660004FEAD10110EB80054FEA810444EA90743F
:10D6700044EB01046D1944EB0404521BA3414FF029
:10D68000000348BF0A3200D530BD401C41F1000103
:10D6900030BD00002DE9F0411F4604460326016815
:10D6A000072A01F4006004DB08B116A505E016A501
:10D6B00003E008B115A500E015A521F010002060D9
:10D6C000A069C01EA0610FB1401EA0612046FEF7F8
:10D6D000FBFE4FB1D4E9012138469047206A401C37
:10D6E0002062C01C206206E0206AFAE7D4E901212A
:10D6F00015F8010B9047761EF8D22046FEF7FAFE89
:10D70000BDE8F0814E414E006E616E00494E46000C
:10D71000696E66002DE9F047814616468AB03548A5
:10D7200078440DC88DE80D0032487844801C03AC65
:10D730000DC884E80D0041F69B300844372190FB6A
:10D74000F1F290FBF1F5A5F1800501FB12041B3C01
:10D7500002D56442012000E00020DFF898A0804656
:10D760000027FA44AAF1BE0A0EE0E0070AD03246CA
:10D77000684607EB470101230AEB810100F005FC35
:10D780008DE8070064107F1C002CEED1194F7F44F8
:10D79000AE3F19E0E80715D007EB04100DF1180AA9
:10D7A00090E80E008AE80E00C068F04201D1981996
:10D7B00008903246012306A903A800F0E6FB03AB5C
:10D7C00083E807006D10641C002DE3D14FF00103C6
:10D7D00032466946B8F1000F03A802D000F0C0FB42
:10D7E00001E000F0D2FBC9E90001C9F808200AB045
:10D7F000BDE8F08724550600002801D035F0E9BFC8
:10D800007047000010B5002102A000F0BDF8012013
:10D8100010BD0000534947414252543A2041626EC4
:10D820006F726D616C207465726D696E6174696F81
:10D830006E00000010B5012805D0002103A000F003
:10D84000A3F8012010BD09A1F8E700005349475291
:10D85000544D454D3A204F7574206F6620686561C0
:10D8600070206D656D6F7279000000003A20486588
:10D870006170206D656D6F727920636F7272757063
:10D8800074656400AFF3008010B500F00EF8016914
:10D8900019B100220261884701E080688047FFF7E4
:10D8A00055F8000010B5FFF751F870B500F048F8D2
:10D8B00004680546A4B92020FEF78EFD040011D0AF
:10D8C000094900202C60C4E900010849A1602073C7
:10D8D000206160610649A06109B100F06EF8E06165
:10D8E000204670BDFFF732F800000000A5D8000800
:10D8F000000000007546FFF71BFBAE4605006946B9
:10D90000534620F00700854618B020B5FEF7F2FC1C
:10D91000BDE820404FF000064FF000074FF0000830
:10D920004FF0000B21F00701AC46ACE8C009ACE8B1
:10D93000C009ACE8C009ACE8C0098D4670470000DA
:10D94000004870472439012010B50446AFF3008029
:10D950002046BDE81040FEF7B9BC2DE9F04107466E
:10D9600015460E461020FEF737FD04000AD067600A
:10D97000C4E9026500F040F80168216004600020FD
:10D98000BDE8F0810120FBE770B505460C460A2092
:10D9900000E06D1C35F01FFF35B128780028F8D164
:10D9A00002E0641C35F017FF14B120780028F8D18C
:10D9B000BDE870400A2035F00EBF10B58820FEF794
:10D9C0000BFD002801D00021017010BD802902D874
:10D9D00008B1017809B100207047012100F8081B47
:10D9E000704718B100F10802914201D00020704741
:10D9F0000021017070470000004870472039012065
:10DA00002DE9F0410646FFF7F7FF8046454613E053
:10DA100016B1E068B0420ED120682860D4E9010157
:10DA2000D8F8007088472046FEF705FDD8F80000BA
:10DA3000B842EBD100E025462C68002CE8D1BDE8C7
:10DA4000F081000070B5064C7C44064D7D4403E037
:10DA5000206820448047241DAC42F9D170BD0000ED
:10DA6000A8640600B06406005FEA400C08BF91F0AD
:10DA7000000F4FEA8C234FEAC12243EA51514FEA8B
:10DA80001C5018BF00F5F0404FEA300018BF41F0BD
:10DA900000415FEA6C5C00F02980BCF1FF3F08BFE9
:10DAA00040F080407047130C06BF12044FF0100C7A
:10DAB0004FF0000C130E04BF12020CF1080C130FF0
:10DAC00004BF12010CF1040C930F04BF92000CF17F
:10DAD000020CD30F04BF52000CF1010C11464FF0A1
:10DAE0000002A0F11F00A0EB0C00704711F0004FE6
:10DAF00008BF704731F000413FF4D5AF0B0C06BFB3
:10DB000009044FF0100C4FF0000C0B0E04BF09027B
:10DB10000CF1080C0B0F04BF09010CF1040C8B0F66
:10DB200004BF89000CF1020CCB0F04BF49000CF1BB
:10DB3000010CCCF12003A0EB0C0022FA03F302FA53
:10DB40000CF241EA030100F10100704720F07F4C24
:10DB500080EA030023F07F47ACEB070303F57C5317
:10DB600000F0004003F1FF032DE980494FEA154B17
:10DB700009B44FEA144325EA0B4E24EA03480FF296
:10DB8000042606EB132749083E785FEA320203FBBE
:10DB90000667C7F5000707FB06F64FEA54374FEA5A
:10DBA000D64606F1020607FB066CCCF1005C4FEA94
:10DBB0001C472CEA074C07FB06F40CFB06F504EBAC
:10DBC00015464FEA961634BF00204FF000404FEA4A
:10DBD000D13706FB07FC4FEA1C4C0CFB0BF7D21BA2
:10DBE00003FB0CF761EB07010CFB0EF7B0EB0740F2
:10DBF00072EB17420CFB08F734BFA2EB0742B2EB03
:10DC0000074261EB17414FEA0C444FEA910706FBCC
:10DC100007FC4FEA1C4C0CFB0BF7B0EBC74072EB58
:10DC2000573203FB0CF734BFA2EBC742B2EBC7423B
:10DC300061EB57310CFB0EF7B0EBC70072EB57727C
:10DC40000CFB08F734BFA2EBC702B2EBC70261EBD3
:10DC50005771039F4FEA816141EA921104EBCC04B2
:10DC60004FEAD1374FEA826206FB07FC42EA901284
:10DC70004FEA80604FEA1C4C0CFB0BF7D21B03FBF6
:10DC80000CF761EB07010CFB0EF7B0EB074072EBF2
:10DC900017420CFB08F734BFA2EB0742B2EB074276
:10DCA00061EB17414FEA8C554FEA910704EB9C2436
:10DCB00006FB07FC4FEA1C4C0CFB0BF7B0EBC74014
:10DCC00072EB573203FB0CF734BFA2EBC742B2EB47
:10DCD000C74261EB57310CFB0EF7B0EBC70072EB9C
:10DCE00057720CFB08F734BFA2EBC702B2EBC702B6
:10DCF00061EB577115EB4C254FEA816141EA9211B6
:10DD00004FEA82624FEAD13742EA901206FB07FCE3
:10DD100044F100044FEA80604FEA1C4C0CFB0BF707
:10DD2000D21B03FB0CF761EB07010CFB0EF7B0EB0A
:10DD3000074072EB17420CFB08F734BFA2EB074217
:10DD4000B2EB074261EB174115EB1C154FEA81312D
:10DD500041EA92414FEA823242EA90424FEA8030F1
:10DD60004FEA0C7644F1000448EA03434EEA0B48BC
:10DD70004FF0000EB2EB080C71EB030724BF6246B4
:10DD800039464EEB0E0E4FF0000B00185241494140
:10DD90004BEB0B0BB2EB080C71EB03077BF1000BA9
:10DDA00024BF624639464EEB0E0E4FF0000B0018B2
:10DDB000524149414BEB0B0BB2EB080C71EB0307E3
:10DDC0007BF1000B24BF624639464EEB0E0E51EA42
:10DDD000020718BF46F0010616EB0E7655F1000259
:10DDE00054F1000103D5BDE88901BDE80088BDE814
:10DDF0008901BDE80048B619524141EB0101A3F188
:10DE00000103704780807F7E7D7C7B7A797877768E
:10DE100076757473727171706F6E6E6D6C6C6B6A07
:10DE20006A696868676666656464636362616160A5
:10DE3000605F5F5E5E5D5D5C5C5B5B5A5A59595822
:10DE4000585757565655555554545353525252518C
:10DE5000515050504F4F4F4E4E4D4D4D4C4C4C4BE2
:10DE60004B4B4A4A4A494949484848474747474629
:10DE70004646454545444444444343434342424265
:10DE800042414141002B9C4630D477002BD01CB539
:10DE90004FEA370703B44FF010004FF01001BAF10A
:10DEA000000F06D0BCF1000FDCBF40F0080040F0CE
:10DEB00008014FF000000FBCBDE810400BF1010B52
:10DEC000BBF1010F08BF5FEA170722BF12F1010281
:10DED00011F101014FF0004143F1000300F0004057
:10DEE00043EA00007047F9D35708D0E746EA0646F0
:10DEF00013F1400F4FEA16461FDD13F1200FDFBF6D
:10DF000016430A46002120335B42BED0C3F12007EE
:10DF100046EA064602FA07F74FEA164646EA0706B9
:10DF2000C3F1200722FA03F201FA07F721FA03F1FD
:10DF30004FF0000342EA0702A7E746EA020646EA74
:10DF400006464FEA164646EA0106BCBF46EA0646C2
:10DF5000360C4FF000034FF000024FF0000194E741
:10DF60002DE9804C9A46934670B491E8380007C872
:10DF700031EA400C48BF34EA430C03D5FFF7E6FD15
:10DF8000FFF780FFF0BCBDE8008C2DE9804C9A467D
:10DF9000934670B491E8380007C810F0804F08BF6E
:10DFA00013F0804F03D100F005F8FFF76BFFF0BCD2
:10DFB000BDE8008C20F07F4780EA030023F07F4C0F
:10DFC00007EB0C03A3F57C5300F00040A3F1FE0324
:10DFD00092F0000F00F0B38095F0000F00F0778012
:10DFE0002DE901494FEA11404FEA144621EA004861
:10DFF00000FB06FC24EA064708FB06F607FB08F8C8
:10E0000000FB07F718EB06484CEB164C4FEA124B97
:10E0100018EB07484FEA15464CEB174022EA0B4E27
:10E020000BFB06FC25EA06470EFB06F607FB0EFE79
:10E030000BFB07F71EEB064E4CEB164C4FF00006A1
:10E040001EEB074E4CEB174B18EB0B0840F1000092
:10E0500018EB0E0B58EB000840F100008F1A4FF040
:10E0600000013CBFC943661B14BFB5EB040C002183
:10E070003CBFC943F61B4FEA17444EEA8E0E27EA0F
:10E0800004454FEA1C4704FB07622CEA074C05FBDA
:10E0900007F70CFB05F604FB0CFC16EB074642EBFE
:10E0A000174216EB0C4642EB1C421BEB060658EBE4
:10E0B0000202414146EA9E0601D5BDE80189B61932
:10E0C000524141EB0101A3F10103BDE801894FEA8F
:10E0D00014454FEA114724EA054621EA074C05FB9F
:10E0E00007F406FB07F70CFB06F105FB0CFC11EB34
:10E0F000074144EB17444FEA124711EB0C4144EB44
:10E100001C4422EA074C05FB07F206FB07F70CFB51
:10E1100006F605FB0CFC16EB074642EB174216EB26
:10E120000C4642EB1C456A1854F1000148BF704789
:10E13000B619524141EB0101A3F10103704795F07B
:10E14000000F37D04FEA11424FEA144721EA024646
:10E1500024EA074C02FB07F106FB07F70CFB06F469
:10E1600002FB0CFC14EB074441EB17414FEA154747
:10E1700014EB0C4441EB1C4125EA074C02FB07F56C
:10E1800006FB07F70CFB06F602FB0CFC16EB07463A
:10E1900045EB174516EB0C4645EB1C42121951F1A5
:10E1A000000148BF7047B619524141EB0101A3F18C
:10E1B000010370474FEA14454FEA114724EA054628
:10E1C00021EA074C05FB07F106FB07F70CFB06F2FB
:10E1D0004FF0000605FB0CFC12EB074241EB174128
:10E1E00012EB0C4251EB1C4148BF7047921841EBB7
:10E1F0000101A3F10103704721484FF0FF010170B5
:10E20000002080F309881F48016881F308881E48B0
:10E210004FF08051016062B6FEE71B484FF080511D
:10E220000160704718484FF080510160704772B626
:10E23000EFF3098050B11EF0100F08BF20ED108AD7
:10E24000734620E9F80F11490968086000B51048C5
:10E2500080475DF804EB0F480F490A7802700B48BD
:10E260000E490A6802601068B0E8F80F9E461EF07A
:10E27000100F08BFB0EC108A80F3098862B67047AF
:10E2800022ED00E0F00A002004ED00E0E80A0020A2
:10E29000491203088E0A00208F0A0020EC0A002091
:10E2A0000029816802D041F0010101E021F0010163
:10E2B00081607047084B10B5D3F8042307490A4022
:10E2C000D0E900142143D0E9024004432143114323
:10E2D000C3F8041310BD000000200140E030FCFF33
:10E2E0002DE9F041614C8CB0607801287DD100258A
:10E2F000657018216846FEF778FC0121072025F09B
:10E30000C9F94FF480780121404625F0F3F94FF424
:10E310004030CDE908500A9508A80B95FFF7CAFFD1
:10E3200003208DF81C00524F01268DF81F5006A9BE
:10E330003846069609F002F90220069006A93846EA
:10E3400009F0FCF800F09CF88DF8045000958DF869
:10E35000055002950495474D8DF81460694628468E
:10E3600000F0A4F8012000F007F901212846FFF78A
:10E3700097FF072301221121284600F0BDF8284607
:10E3800000F0F4F80221284600F089F80028F9D0BE
:10E39000284600F081F838490723B1FBF0F0A0804F
:10E3A00001220021284600F0A7F8284600F0DEF8F8
:10E3B0000221284600F073F80028F9D0284600F022
:10E3C0006BF8A1882D4E4843C11700EB1150000B8C
:10E3D0003080012207231146284600F08DF8284698
:10E3E00000F0C4F80221284600E03CE000F057F8B5
:10E3F0000028F7D0284600F04FF8A1884843C117FD
:10E4000000EB1150000B7080012000F0C5F80723CD
:10E4100001221221284600F06FF8284600F0A6F8E5
:10E420000221284600F03BF80028F9D02E46284665
:10E4300000F032F80546002000F0AEF8A08840F663
:10E44000FF714543680090FBF1F0E0800021304609
:10E45000FFF726FF002000F08FF80021404625F04E
:10E4600049F9207820700CB0BDE8F08178060020D2
:10E47000000002400020014000A04B00185800207E
:10E4800010B501210C02204625F040F92046BDE8D8
:10E490001040002125F03AB9C06C80B270470246A6
:10E4A000002012680A4200D00120704730B542684F
:10E4B0000F4B0C791A400B6842EA04221343436065
:10E4C00082680C4B4D791A40D1E9034323438C6891
:10E4D00044EA4504234313438360C26A097D22F45E
:10E4E0007002491EC9B242EA0151C16230BD00004A
:10E4F000FFFEFFFCFDF7FFC070B5072409290AD90C
:10E50000C568A1F10A0606EB4606B440A543B34030
:10E510001D43C56007E0056901EB4106B440A54312
:10E52000B3401D4305611F23072A09D2446B521EC5
:10E5300002EB820293409C4391400C43446370BDC4
:10E540000D2A09D2046BD21F02EB820293409C4336
:10E5500091400C43046370BDC46A0D3A02EB820221
:10E5600093409C4391400C43C46270BD816841F06C
:10E57000804181607047000006490028D1F80403FB
:10E5800002D040F4000001E020F40000C1F80403D0
:10E59000704700000020014006490028D1F804031C
:10E5A00002D040F4800001E020F48000C1F80403B0
:10E5B00070470000002001400249012800D00020DF
:10E5C00008707047780600200148C0887047000036
:10E5D00078060020002800DC40427047A0F130019E
:10E5E000092901D8C8B27047A0F14101192902D800
:10E5F0003738C0B2704720280FD024280FD02528E4
:10E600000FD02A280FD02B280FD02D280FD02E283E
:10E610000FD02F280FD02C207047242070472520A2
:10E6200070472620704727207047282070472920F0
:10E6300070472A2070472B207047000000B58BB030
:10E64000002009A9032205900690CDE907210C229C
:10E6500002928021CDE90310064B0820CDE900038A
:10E6600004480023044A05A1C43822F05BFB0BB028
:10E6700000BD000018560020995104085461736BC6
:10E680002D41440000B58BB0002009A9032205905C
:10E690000690CDE90721662202924FF48061CDE910
:10E6A0000310064B0720CDE9000304480023044A69
:10E6B00004A1C03822F036FB0BB000BDF0120020E0
:10E6C000A9EA00085461736B2D4465627567000008
:10E6D00000B58BB0002009A9032205900690CDE972
:10E6E00007210C2202928021CDE90310064B0F2056
:10E6F000CDE9000304480023044A05A1C03822F0F4
:10E7000011FB0BB000BD0000C03E002045530408C3
:10E710005461736B2D47707273417070586B6170E8
:10E720000000000000B58BB0002009A9032205906D
:10E730000690CDE907210C2202928021CDE9031039
:10E74000064B0E20CDE9000304480023044A05A12E
:10E75000C03822F0E7FA0BB000BD0000782C002092
:10E76000015904085461736B2D47736D50617273C6
:10E770006500000000B58BB0002009A903220590B8
:10E780000690CDE907210C2202928021CDE90310E9
:10E79000064B0D20CDE9000304480023044A05A1DF
:10E7A000C03822F0BFFA0BB000BD0000382F0020A7
:10E7B000517104085461736B2D47736D53656E641A
:10E7C0000000000000B58BB000200322CDE9060256
:10E7D00009A908910C21084B0590CDE9001380226E
:10E7E000CDE90212049003460348044A04A1C0384C
:10E7F00022F098FA0BB000BDF83100204D760408E5
:10E800005461736B2D47736D546573740000000081
:10E8100000B58BB0002009A9032205900690CDE930
:10E820000721662202924FF48061CDE90310064B66
:10E830000A20CDE9000304480023044A04A1C0389B
:10E8400022F070FA0BB000BD20420020E5780408E9
:10E850005461736B2D48636900000000FEB51EF023
:10E860005BF80AF087FB0BF06FFB022025F05CF9E8
:10E87000C8B9002235A1364835F0E2FC354C0028F5
:10E88000207062D1012234A1354835F005FD20B158
:10E890000022114633480AF031F800222BA110461D
:10E8A00035F0CEFC207004F0DFF92F4D01282871DF
:10E8B00001D10DF037FA00201FF062F90446002262
:10E8C000014610461FF092FA207D0A2801D20A2044
:10E8D00020752979C0B2012902D0322800D932200E
:10E8E0001EF0A4F994F848102048012719B1012915
:10E8F00001D084F84870A862012025F015F900269F
:10E90000032801D8EF7000E0EE7094F84A00012867
:10E910000FD184F84A60002019F03AFC14F036FE5A
:10E9200002A8CDE9006000230A221946184622F009
:10E93000EFFC0022214601201FF058FA03B02146C7
:10E94000BDE8F04000201FF0D3B8FEBD303A000013
:10E9500020CC00200C08002042532E626D70000075
:10E96000F8C90020447706083C060020DDDD0108D8
:10E9700000B58BB0002009A9032205900690CDE9CF
:10E980000721192202924FF48071CDE90310064B42
:10E990001120CDE9000304480023044A04A1C03833
:10E9A00022F0C0F90BB000BDD064002059790408F2
:10E9B0005461736B2D52666D7300000000B58BB00F
:10E9C000002009A9032205900690CDE907210C2219
:10E9D00002928021CDE90310064B1220CDE90003FD
:10E9E00004480023044A05A1C03822F09BF90BB06B
:10E9F00000BD0000506B00209D8004085461736BC3
:10EA00002D52666D732054657374000000B58BB091
:10EA1000002009A9032205900690CDE907210622CE
:10EA200002924021CDE90310064B0520CDE90003F9
:10EA300004480023044A05A1C03822F073F90BB042
:10EA400000BD0000906900206D8204085461736B62
:10EA50002D52666D732054780000000000B58BB015
:10EA6000002009A9032205900690CDE907210C2278
:10EA700002928021CDE90310064B0920CDE9000365
:10EA800004480023044A05A1C03822F04BF90BB01A
:10EA900000BD000048530020FD8F04085461736BD3
:10EAA0002D53656E736F72000EB5002402AD002207
:10EAB000642311461046CDE9004522F029FC06F0FA
:10EAC00001FFF4E708B504F075F821F0E9F805F066
:10EAD000EBFA02F037FC1EF0CDFF01F015FE01F05D
:10EAE00021FDFFF7FDFB01F053FE01F057FCFFF79E
:10EAF000B5FE01F079F9012027F094FE684622F076
:10EB0000BBF8FFF7BFFDFFF70DFEFFF733FEFFF782
:10EB100059FEFFF7DDFDFFF77BFEFFF79FFFFFF7D5
:10EB20008DFD00F035F800F00BF8FFF721FFFFF73F
:10EB300045FFFFF76BFF00BF01F012FFFCE700008D
:10EB400000B58BB0002009A9032205900690CDE9FD
:10EB500007210C2202928021CDE90310064B1020E0
:10EB6000CDE9000304480023044A05A1C03822F07F
:10EB7000D9F80BB000BD0000A85B00204D90040840
:10EB80005461736B2D54696D65723130306D730053
:10EB900000B58BB0002009A9032205900690CDE9AD
:10EBA00007210C2202928021CDE90310064B06209A
:10EBB000CDE9000304480023044A05A1C03822F02F
:10EBC000B1F80BB000BD0000E85800207D900408AB
:10EBD0005461736B2D5573657254696D6572313074
:10EBE0006D730000F0B500220123037001E0521C98
:10EBF000D2B2845C042CFAD00022845C022C00D1B6
:10EC00008354521C92B2022AF7D300220225845C5C
:10EC1000032C00D18554521C92B2032AF7D3002250
:10EC20000324865C042E00D18454521C92B2042A20
:10EC3000F7D30122865C012E0ED186187778012F3A
:10EC40000AD116F8016C012E06D0D6B202E0835527
:10EC5000761EF6B2002EFAD1521C92B20C2AE9D3DB
:10EC600006224E1E0EE0875C032F09D1871817F885
:10EC700001CCBCF1020F03D17F78022F00D1855463
:10EC8000521C92B2B242EEDB0622A1F1050C16E054
:10EC9000875C022F11D8871897F801E0BEF1030FA7
:10ECA0000BD397F802E0BEF1030F06D397F803E009
:10ECB000BEF1020F01D8BD707D70521C92B2624548
:10ECC000E6DB062213E0875C032F0ED300EB020C79
:10ECD0001CF8017C022F08D89CF801C0BCF1020F7F
:10ECE00003D8674500D867468754521C92B2B24297
:10ECF000E9DB01220AE0865C032E05D3861816F8AC
:10ED0000016C012E00D18554521C92B28A42F2D37A
:10ED100001220AE0855C042D05D1851815F8015CF7
:10ED2000022D00D18454521C92B28A42F2D3435431
:10ED30003C2600231A4618E0855C042D09D0042BDC
:10ED400001D2B24203D3032B0CD2B2420AD3012523
:10ED500006E05B1CDBB206E0571B6D1CC455ADB270
:10ED60009D42F9D90023521C92B28A42E4D9F0BDE7
:10ED70002DE9FE4FE74E0022DFF89CA3336FD6E962
:10ED80001D7C9E46DFF89493DFF894B30A3306F1B6
:10ED900080051446052823D2DFE800F02203222450
:10EDA000F00001201EF0ECFE686100F5F0712861B2
:10EDB000B167A031716734853467F4676C60AC600B
:10EDC000EC603473748534724FF48061FDF7EBFEB0
:10EDD000F121D448FDF7E7FE7482B4828BF85040ED
:10EDE000BDE8FE8FDFF84083C645F9D23367B1F541
:10EDF000806F01D340F2FF31308DA0EB010808F5A0
:10EE0000F878B8F5787F01D9014600E03185A1F5A1
:10EE10008071FF3900D5494288B2B3460A21B3FB5D
:10EE2000F1F601FB1631A9BB442808D2DBF87C605F
:10EE30000644CBF87C606968491C69601DE096282F
:10EE400011D2B3FBF9F609FB1636B6FBFAF1B3FBA8
:10EE5000F9F809FB18385CF82160B8FBFAF1761C68
:10EE60004CF8216009E0B0F5EE7F03D8E968491C51
:10EE7000E96002E0A968491CA960B3FBF9F609FB47
:10EE80001636B6FBFAF1C9B257F8216006EB40001E
:10EE900047F82100B3FBFAF60AFB1631584611B9C0
:10EEA000418D491C4185A149B3FBF1F601FB1631A7
:10EEB00059B99849EE68097B052E02D2491C0173A5
:10EEC00002E0032900D20473EC609449B3FBF1F62D
:10EED00001FB1631002983D1696831B1C66FB6FBD9
:10EEE000F1F144F24E66714300E00121DE46C16754
:10EEF000DEF87C80D5F808A02969884EAB46C1466B
:10EF00005CF8220010B1BAF1060F03D857F82200BE
:10EF1000642502E057F822009625684347F822004E
:10EF200057F82200B0FBF8F0FA2808D9B3FBF6F046
:10EF3000401E00EB800002EBC005FA2006E0B3FBA8
:10EF4000F6F56D1E05EB850502EBC505521C92B268
:10EF50004855282AD4D3CBF80090CEF87C40CBF883
:10EF600004400020CBF8084047F820404CF82040EF
:10EF7000401C80B22828F7D332E7FFE733674B45C0
:10EF80006FD369498B4202D34FF4F07171856348A6
:10EF9000AE68B3FBF0F100FB1131B1FBFAF081B2C6
:10EFA000D5F810A02868E646009629E05EF82260B1
:10EFB00016B1009E062E04D857F822604FF0640C5C
:10EFC00003E057F822604FF0960C06FB0CF647F86A
:10EFD000226000B90120B6FBF0F9504EB9F1FA0FEA
:10EFE000B3FBF6F606EB860602EBC60804D94FF033
:10EFF000FA0C0AF808C001E00AF80890521C92B214
:10F000008A42D3D35246434EDFF814A128600AF156
:10F01000800A0020778D0AF5407935E002EB000C7C
:10F02000115C9CF801C06144490809EB500CFA29B5
:10F030008CF8021003D9FA218CF8021001E0CA29D9
:10F0400010D90AEB500C01218CF80210BBF84310C8
:10F0500049BA491C4FEA11288BF843808BF84410B9
:10F0600010E048E09B2902D94FF0020C06E0782915
:10F0700002D94FF0030C01E04FF0040C0AEB5001F1
:10F0800081F802C0801C80B2B842C7D3284F00224A
:10F09000B3FBF7F081B22248FF233D30CDE90004F5
:10F0A00009F10200029405F01FF8BBF8431058461E
:10F0B00049BA7F2904D980F843407F2180F8441061
:10F0C000326FB2FBF7F1B2FBF7F3C9B207FB1322C1
:10F0D00080F8451022B1F02902D2491C80F8451071
:10F0E00080F846409BF84500401EC1B20AF102007C
:10F0F000FFF778FD06E07485F1210A48FDF753FD1E
:10F100008BF84540696903B00120BDE8F04F1EF05F
:10F11000EFBC000080060020905F010080EE36000A
:10F12000D46D002056710020002E930240771B0002
:10F1300020BF0200FEB50A464249434D01F180045A
:10F14000052857D2DFE800F0560356195700002073
:10F150008885A06104201EF013FD4FF42051E0616A
:10F16000FDF743FD00201EF00BFD206203B04FF4BD
:10F170008071BDE8F040FDF716BD344BA0699842A0
:10F1800038D20A30A061B2F5806F01D340F2FF326D
:10F190008B8D9E1A06F5F876B6F5787F01D91A465A
:10F1A00000E08A853226B0FBF6F106FB110080B93B
:10F1B0002749104606F0A8FA2649A069B0FBF1F2EB
:10F1C00001FB1200B0FBF6F0E16901EB800000EDFD
:10F1D000010AA069B0FBF5F105FB1100002809D177
:10F1E000E06900F013FCA169226AB1FBF5F111445A
:10F1F00001F8010CFEBDA069174E0A30A061F02293
:10F20000B01C216AFDF70EFC0420E1691EF070FCC1
:10F210000020216A1EF06CFCA069A6F24B12B0FB24
:10F22000F5F081B2901C431ECDE900300292E0233C
:10F230000022B01C04F058FFA6F5C07181F8380018
:10F24000FEBD00008006002020BF0200002E9302B9
:10F2500090070020905F0100546F0020FEB50A4621
:10F260004249434D01F18004052857D2DFE800F000
:10F270005603561957000020C885606204201EF00E
:10F280007FFC4FF42051A062FDF7AFFC00201EF080
:10F2900077FCE06203B04FF48071BDE8F040FDF709
:10F2A00082BC344B606A984238D20A306062B2F550
:10F2B000806F01D340F2FF32CB8D9E1A06F5F876AF
:10F2C000B6F5787F01D91A4600E0CA853226B0FB30
:10F2D000F6F106FB110080B92749104606F014FA32
:10F2E0002649606AB0FBF1F201FB1200B0FBF6F0B8
:10F2F000A16A01EB800000ED010A606AB0FBF5F144
:10F3000005FB1100002809D1A06A0CF0ADFF616A6D
:10F31000E26AB1FBF5F1114401F8010CFEBD606A2F
:10F32000174E0A306062F022B01CE16AFDF77AFBEA
:10F330000420A16A1EF0DCFB0020E16A1EF0D8FB6D
:10F34000606AA6F24722B0FBF5F081B2901C431E22
:10F35000CDE900300292E0230022B01C04F0C4FE8C
:10F36000A6F5207181F83C00FEBD0000800600205B
:10F3700020BF0200002E9302CC070020905F010006
:10F38000547000202DE9F0478A4601F0D5FF782817
:10F3900063D3334C334D04F18009E07B002640BB3E
:10F3A000DFF8C480D8F80070012F56DC0120E0732C
:10F3B00020212846FDF719FC2E7098F814102B4ACE
:10F3C000A1F5FA61697098F81010491CA97098F8B5
:10F3D0000C10E97098F80810297198F80400687109
:10F3E000AF71691C681C05F025FC26746686C9F897
:10F3F0003860AAF58070FF3800D54042D9F838202F
:10F4000081B21144C9F83810608E40F2DE32401CDF
:10F4100080B2608690420ED9207C05EB8002401CB1
:10F4200091602074206C814203D2606C0A30606469
:10F4300000E066646686207C06280ED309492022F7
:10F44000A1F6786004F07EF96A1CE673BDE8F04727
:10F450000449083118201EF0C9BCBDE8F08700003F
:10F460008006002074720020DCD000204057FFFF8F
:10F4700030B5018800EE101A4188B8EE401A00EE4F
:10F48000101AF8EE400A9FED7A0A028900EE801AFF
:10F49000F02A04D200EE902AF8EE601A01E0DFEDC7
:10F4A000751AC1EE210A9FED741A60EE810ADFED34
:10F4B000731A80EEA11AFDEEC10A10EE901A0BB27B
:10F4C0001CD9818800EE901AC18801EE101AF8EE5E
:10F4D000600AA2F1F001B8EE411A41EE000A00EE16
:10F4E000101AB8EEC01A80EE810AF2EE0E0A60EE33
:10F4F000200A9FED631A80EE810A01E09FED610A08
:10F50000BDEEC00A10EE101A03FA81F109B23829D3
:10F5100000DD382180F82C104389092B17D9B0F968
:10F520000A300324093B93FBF4F3C3F10C031BB231
:10F53000002B00DA002319440CB280F82D308189A9
:10F5400008230C2905D9B0F90C100C3907E00C235D
:10F55000F1E7082916D2B0F90C10C1F1080101EB4E
:10F56000D171A3EB610109B2002900DA002163180F
:10F5700080F82E10017C1BB24C1E032C04D8C1F164
:10F58000040102E00821F2E703210B4480F82F1068
:10F59000C1891BB21E291AD9B0F90E100F241E39C9
:10F5A00091FBF4F1C1F10A0109B2002900DA00214E
:10F5B0000B4480F8301090F911101BB201F10904CE
:10F5C0003C2C0BD2182904DDC1F11F0104E00A21F3
:10F5D000EEE714290FDA0D39002900DA00210B4477
:10F5E00080F83110417F1CB2642911D805234129CC
:10F5F00003D9413905E00721F1E72D2916D2C1F1E0
:10F600002D0191FBF3F1C1F1030109B2002900DAE8
:10F61000002163181CB280F832104FF47A73B2F5EF
:10F62000F07F05D91849B1FBF2F10AE00321F0E7B8
:10F630004FF4C3718A4212D24FF47A756A43B2FB17
:10F64000F1F1962900D2962141856143B1FBF3F196
:10F65000C9B280F83310642903D3632104E019464A
:10F66000F2E7192902D2192180F83310002030BDA9
:10F670006666263F00007043000024429A99193FB5
:10F68000CDCCCC3E00000000005307002DE9F04136
:10F69000002705461781B0F81300144640BA1081C0
:10F6A000B5F8152052BA10442081B5F8172052BA87
:10F6B00010442081B5F8192052BA104480B220813C
:10F6C00067802780F02800D3F0200322B0FBF2F2FD
:10F6D000002013E00B189B78012B0DD0022B0BD0D0
:10F6E000032B02D0042B07D103E06388DB1C63806B
:10F6F00002E02388DB1C2380401C80B29042E9D3C7
:10F70000B5F81700618840BA401AE080B5F81900D2
:10F71000218840BA401AA080B5F81B0040BA608129
:10F72000B5F8430040BAA081D5F81D00C4F8110017
:10F73000D5F82100C4F81500D5F82500C4F8190043
:10F74000D5F82900C4F81D00D5F82D00C4F8210013
:10F75000D5F83100C4F8250095F850002074002039
:10F760001EF00EFA06460146002214201EF03EFB53
:10F7700096F83800FF2806D186F83870FF22382125
:10F780003046FDF708FA697AA87AC1EB011100EB5F
:10F7900081004FF4B477B84202D800F5B46080B26B
:10F7A0000022114613464FF6FF7C00BF36F8135077
:10F7B00065450DD0A5F5876EBE4504D22A44491C87
:10F7C00092B2C9B204E0BD4202D802F5B462F5E7D4
:10F7D0005B1CDBB21C2BE9D359B3B2FBF1F1411A2C
:10F7E00000D54942E181B0F5B46F02D3A0F5B46011
:10F7F00080B2A0F58761B94201D3B84212D896F819
:10F80000381026F8110096F838001C21401CB0FB77
:10F81000F1F201FB120086F8380000223146152073
:10F820001EF0E4FA314600201EF062F90020BDE827
:10F83000F0810146D3E7000070B53B4A0023146E07
:10F8400025460A3405280CD2DFE800F00A030A0C2A
:10F850006C001366536635489366D36680F8503063
:10F86000937170BD32488542FBD21466B1F5806F4A
:10F8700001D340F2FF31D08C451A05F5F875B5F586
:10F88000787F01D9014600E0D184A1F58071FF396C
:10F8900000D5494288B20A21B4FBF1F501FB1541BC
:10F8A00059B9442805D2516E01445166916E491CE4
:10F8B0009166D16E01EB4000D0661E48B4FBF0F1BA
:10F8C00000FB114020BBD06E64214843D066916E8E
:10F8D00031B1556EB5FBF1F144F24E6569435166A5
:10F8E000556E012105B95166556EB0FBF5F0CA2879
:10F8F00001D9917109E09B2801D9022004E0782800
:10F9000001D9032000E004209071D366536693660A
:10F910000948B4FBF0F100FB11400028A1D1536667
:10F92000936670BD14669BE780060020D46D0020AE
:10F93000002E9302905F010080EE36001FB56846EE
:10F9400023F0F0FE019804B010BD000010B5FFF7E1
:10F95000F5FF04490968BDE81040B0FBF1F021F063
:10F96000AFBD00008C0605080146512023F082BE81
:10F970002DE9F0410C460746C1B21D4616465820F7
:10F98000DDF8188023F076FE390A592023F072FE44
:10F99000E1B25A2023F06EFEB8F1000F17D080209C
:10F9A00040EA14215B2023F065FEE9B25C2023F0DD
:10F9B00061FE290A5D2023F05DFEF1B25E2023F096
:10F9C00059FE310ABDE8F0415F2023F053BE210A01
:10F9D000E8E700000549012008700549502008802B
:10F9E0004FF0D8418020088070470000C2080020F6
:10F9F0000000086C2DE9104023F0B0FD4006FBD458
:10FA000001490020087010BDC20800202DE9F04710
:10FA100000252DED048B9FEDBD9B04469FEDBD8A17
:10FA2000BD4BBE4F2846597B4FF4E16604EB800C7A
:10FA3000DCF80020BA421DDB01210022B0EE480AAA
:10FA40000FE000BFA0EB020804EB8808D8ED000A25
:10FA5000F5EEC00AF1EE10FA06DB521C88ED000A42
:10FA600012B28242EEDD2CE0821A04EB820282EDB9
:10FA7000000A26E0DFF8A88242451DD302210022B9
:10FA8000B0EE480A0FE000BFA0EB020804EB8808C4
:10FA9000D8ED000AF5EEC00AF1EE10FA06D8521CB5
:10FAA00088ED000A12B28242EEDD1BE0821A04EBFE
:10FAB000820282ED000A15E0012902D0022911D04C
:10FAC00021E0B0EE480A8CED000AB5EEC00AF1EE76
:10FAD00010FA18DB9CED010AB5EEC00AF1EE10FA3F
:10FAE00010D310E0B0EE480A8CED000AB5EEC00A63
:10FAF000F1EE10FA07D89CED010AB5EEC00AF1EE5E
:10FB000010FA00DD0021401C00B2B0428EDB9946A5
:10FB1000597388465FF0000704EB870090ED000AF8
:10FB2000BDEEC00A10EE100A002800DA404239F09B
:10FB300037FE53EC192B39F027FC7F1C41EC190BD5
:10FB40003FB2B742E8DB9FED770B51EC190B53EC5A
:10FB5000102B39F0CDFC9FED751B53EC112B39F0B8
:10FB600085FE9FED741B53EC112B39F07FFE39F0AD
:10FB7000D9FB00EE100A00204F46414604EB8003FB
:10FB8000D3ED000AF4EEC00AF1EE10FA1CDB0121FD
:10FB90000022F0EE480A0EE0A0EB020C04EB8C0C05
:10FBA0009CED001AB5EEC01AF1EE10FA06DD521CFB
:10FBB000CCED000A12B28242EEDD2EE0821A04EB96
:10FBC0008202C2ED000A28E0B1EE401AF4EEC10A4A
:10FBD000F1EE10FA1CD802210022F0EE480A0EE0E5
:10FBE000A0EB020C04EB8C0C9CED001AB5EEC01AD5
:10FBF000F1EE10FA06D2521CCCED000A12B282428B
:10FC0000EEDD1BE0821A04EB8202C2ED000A15E071
:10FC1000012902D0022911D021E0F0EE480AC3EDFB
:10FC2000000AF5EEC00AF1EE10FA18DBD3ED010A76
:10FC3000F5EEC00AF1EE10FA10D310E0F0EE480A2B
:10FC4000C3ED000AF5EEC00AF1EE10FA07D8D3EDC5
:10FC5000010AF5EEC00AF1EE10FA00DD0021401CA9
:10FC600000B2B0428ADB89F80D1001201DF088FF38
:10FC7000014600224FF49666B0EE480A5FF000009D
:10FC800004EB8003D3ED000A831804EB8303401CCC
:10FC900093ED001A00B2B04200EE818AF0DB01EB76
:10FCA0008200521C80ED008AD2B2B0EE408A7D2ADA
:10FCB000E4D33C2001EB800292EC020AB4EEE00AAD
:10FCC000F1EE10FA07DB52ED010AB4EEE00AF1EEB4
:10FCD00010FA00DB0546401CC0B27828EAD30120A8
:10FCE0001DF006FF3C2D01D9642D04D3FF20BDEC8F
:10FCF000048BBDE8F087A5F13D00272803D2B6FBB1
:10FD0000F5F0C0B2F3E7FC20F1E7000000000000CE
:10FD10000000000000000000800600200000F0420B
:10FD20000000F0C20000000000004940182D4454BB
:10FD3000FB21F93F0000000000000040F0B528481A
:10FD400085B0817A491CC9B281720A291CD3002668
:10FD50008672C17AD1B1012900D0C672214B002030
:10FD60004FF6FF7400EB400101EBC00103EB810291
:10FD700092F8281021B1518DA14201D0491C518522
:10FD8000401CC0B21428EDD305B0F0BD154F143F90
:10FD9000F97911B10121C172E0E700201DF0F0FEF8
:10FDA00000F1C804054666800520A080201DCDE92D
:10FDB0000106A01C0090039603230122214604960D
:10FDC000284604F0C5F938692946401C3861228864
:10FDD000022027F029F9294600201DF089FEBDE701
:10FDE000BA0500205427002010B54FF4E13102205D
:10FDF00027F08AF90849002008710849C87108618C
:10FE0000C8600749012008700448BDE810404FF45D
:10FE10005C711430FCF7C7BEBA05002040270020F3
:10FE2000500700202DE9F0410546012204F0C8F9F1
:10FE3000012851D08F484FF00108C168491CC160AA
:10FE4000697803292FD0102946D0622944D1002493
:10FE5000FF21EA780E4600F1140700BF04EB4400CE
:10FE600000EBC40007EB800043789A4218D12B794D
:10FE700090F802C0634513D16B7990F803C06345D5
:10FE80000ED1AB7990F804C0634509D1EB7990F8B5
:10FE900005C0634504D12B7A90F806C063453CD079
:10FEA000FF2E1BD01DE0A9780A2915D1E9784172EF
:10FEB000297901726979C172A9798172E9794170F0
:10FEC000297A8170697AC170A97A0171E97A4171E0
:10FED000297B817180F80780BDE8F08190F8283097
:10FEE00023B190F82830012B02D011E026460FE014
:10FEF00090F8293063B9FF2909D001EB410303EBE6
:10FF0000C10307EB8303408D5B8D834200D2214602
:10FF1000641CE4B2142CA1D303E0142C01D22646B5
:10FF20000DE0FF2E0BD1FF29D6D00E4601EB41008C
:10FF300000EBC60007EB80002C21FCF734FE142EEA
:10FF4000CAD206EB460101EBC60107EB81041F2272
:10FF500084F82880E87860702879A0706879E0706B
:10FF6000A8792071E8796071287AA071687AE071C7
:10FF7000A97A207A61F300002072E97A61F34200E5
:10FF80002072297B61F3C700207204F1090005F19A
:10FF90000D01FCF747FD022084F82800002161854F
:10FFA000207AC2073FD1C0F34102032A3BD11E226F
:10FFB000B2EBD00F1BD1637A022B18D1A37A012B9D
:10FFC00015D1E37A042B01D0062B10D1237B1A2BF9
:10FFD0000DD1637BFF2B0AD1A37B4C2B07D1E37B95
:10FFE0002BB9237C022B02D1637C152B06D0B2EBFC
:10FFF000D00F18D1627A022A02D014E0A22035E094
:020000040801F1
:10000000A27A012A0FD1E27A042A01D0062A0AD163
:10001000227B1A2A07D1627BFF2A04D1A27B592AAC
:1000200001D1E27B62B11F21B1EBD00F7FF454AF5D
:10003000A07B5728FAD1E07B0128F7D1A02015E05A
:10004000607C022804D0032806D0102808D00AE0DB
:10005000A07C82280AD006E0A07C812806D002E09D
:10006000A07CA12802D084F8291035E784F8290063
:1000700032E70000402700200C4A10B5D37906284B
:100080000AD2DFE800F0090303030A0C002B03D1B6
:10009000D07100209071508210BD0B7010BD087897
:1000A000012801D00028F9D1107010BDBA05002038
:1000B0000249012800D0002008717047BA050020CD
:1000C00070B31B4A12780270194A521C127842709F
:1000D000174A921C12788270154AD21C1278C2708C
:1000E000134A121D12780271114A521D1278427180
:1000F0000F4A921D127882710D4AD21D1278C27178
:100100000B4A083212780272094A09321278427296
:10011000074A0A3212788272054A0B321278C2728A
:10012000002903D002481230008808807047000080
:10013000107AFF1F2DE9FC41012500241F4E6F0797
:10014000012821D002281DD10121084623F0A2FA5E
:100150008DF804408DF8065020208DF8074000905F
:100160008DF805406946304607F0E8F90021384629
:1001700023F0A8FA0021102004F05AFE00211020DC
:1001800004F08AFEBDE8FC818DF804408DF806502D
:1001900010208DF8074000908DF8054069463046E4
:1001A00007F0CCF90021384623F08CFA00210846EC
:1001B00004F03EFE00210846E2E700000000024095
:1001C0002DE9F041002403272E4E3C2586B04FF048
:1001D000005801282DD0022828D10121084623F0FB
:1001E00059FA8DF804708DF8064020208DF80740EC
:1001F00000908DF805406946304607F09FF90121CF
:10020000404623F05FFACDE9025402A9102005947C
:1002100004F01AFE0121102004F00AFE0021084615
:1002200004F030FE0121102004F036FE06B0BDE8D7
:10023000F0810121084623F02DFA8DF804708DF825
:10024000064010208DF8074000908DF80540694663
:10025000304607F073F90121404623F033FACDE927
:10026000025402A90020059404F0EEFD01210020B3
:1002700004F0DEFD0021084604F0FAFD0121002013
:10028000D2E7000000000240090340F6E442B1FB5F
:10029000F2F110B589B201280AD002280ED100204F
:1002A00004F0F0FD01211020BDE8104004F0F4BD81
:1002B000002004F0DDFD01210020F5E710BD000065
:1002C0000F4910B5CA7822F0030401F5FE7292F8C6
:1002D0003D3058B1012808D1180706D443F00C006E
:1002E00082F83D0019208870CC7010BD1807FCD52D
:1002F00023F0080040F0040082F83D001820F2E7E7
:1003000074CE00200249012800D0002008707047F8
:100310002D08002038B51348017801291AD18178B9
:10032000491CC9B281700A2914D300218170084682
:100330001DF026FC0446684600F08CF858B10AA16E
:100340002046FCF7ABF8204605F0B2FA2146002023
:100350001DF0CEFB38BD0AA12046009AFCF79EF89E
:10036000F1E700002D08002044656275674F757441
:100370003A20496C6C756D2D4552520D0A000000F3
:1003800044656275674F75743A20496C6C756D2DC4
:10039000256C64286C78290D0A000000F0B5012155
:1003A00087B0880523F08EF90121022023F072F92D
:1003B000244F04220A21384607F011F904220B21A8
:1003C000384607F00CF9022000248DF805408DF81E
:1003D0000400012546028DF806508DF80740694655
:1003E0003846009607F0AAF8E802009069463846B9
:1003F00007F0A4F8144F384617F084F80021384667
:1004000017F076F8ADF80C404BF6FF70ADF80E0023
:10041000A803ADF814000D480290ADF81260012158
:10042000384617F065F802A9384617F0B7F817F004
:1004300099FB10B1012007B0F0BD054845700020C0
:10044000F9E700000004024000580040801A06004E
:100450002D0800207FB505462648407800B340208F
:100460008DF80800012202A91D2017F0EDFA0024E2
:1004700003A8CDE900400A2322462146204620F069
:1004800047FF8DF80840012202A9182017F018FA3A
:100490009DF8080000F040008DF80800402802D0C8
:1004A000012004B070BD022202A9102017F008FA42
:1004B0000028F6D19DF809004FF6FF7101EA0020EF
:1004C0009DF80810DFED0C0A084480B200EE100A17
:1004D00049F64041B8EE400A20EE200ABCEEC00AC0
:1004E00010EE100A80B2884201D92C60D8E728604B
:1004F0000020D6E72D0800200000204202490128F4
:1005000000D0002088707047300800200448C2895D
:1005100081898A4202D0C181012070470020704742
:10052000300800207CB501210C2023F0B3F8002016
:100530008DF8040001248DF806408DF807408DF8F1
:10054000050008200F4D00906946284606F0F6FF8A
:10055000042000906946284606F0F0FF0220009033
:100560006946284606F0EAFF69462846009406F0E8
:10057000E5FFA00200906946034806F0DFFF00F0A7
:1005800005F87CBD00080240000C0240F0B55A4A54
:1005900010685A4C06075A484FF6FF754FF0010392
:1005A0004FF0000106D423700688AE4204D0761CBA
:1005B000068001E0217001801668760706D463701A
:1005C0004688AE4204D0761C468001E061704180CE
:1005D0001668B60706D4A3708688AE4204D0761C8F
:1005E000868001E0A17081801668F6070CD0E1706A
:1005F000C180444E37687F050DD423710489AC4215
:100600000BD0641C048108E0E370C688AE42F0D0D1
:10061000761CC680EDE7217101811068000701D4C6
:10062000012214E01068400701D402220FE0106894
:10063000800701D403220AE01068C00704D03068A4
:10064000400503D4052202E0042200E000222B48EA
:100650001538844647799CF80740641CE6B29CF83C
:100660000640052F2DD2DFE807F0030815192600F4
:1006700002B38271C171437126E0C671022E06D9A0
:10068000944215D10221417103724472F0BD94422B
:100690000ED119E041810322427115E02AB1A24234
:1006A00006D142890A3242810EE00422427106E0FC
:1006B0004171817108E0C671052E05D90AB1C17179
:1006C00002E08171C1714171027A012ADED1427961
:1006D000002ADBD10172094C427A641F144404F8E9
:1006E000013C027043708289AA4202D0521C82816E
:1006F000F0BD8181F0BD00001008024045080020D7
:10070000D0D00020100C02401CB50121082022F09E
:10071000C1FF00208DF8050001218DF804108DF82F
:1007200006008DF8070010200F4C00906946204607
:1007300006F004FF1021204606F06DFF20200090F7
:100740006946204606F0FAFE2021204606F063FFA7
:10075000402000906946204606F0F0FE40212046E9
:1007600006F059FF1CBD0000000C0240074901289B
:1007700008D000200870081D4FF47A71027801201B
:1007800000F07AB801200870704700004A08002085
:10079000F0B58BB00121042022F07CFF334D022202
:1007A0000621284606F01BFF02220721284606F0F4
:1007B00016FF03208DF8190002208DF81800002480
:1007C00040208DF81A4005908DF81B4005A9284659
:1007D00006F0B4FE8020059005A9284606F0AEFE7E
:1007E00014216846FCF701FA0794089401210220BD
:1007F000099422F067FF1E4F384626F05DF81D4D24
:100800004FF47A7607A92868ADF81C40B0FBF6F0E3
:10081000401E0890ADF82440ADF81E40384626F042
:1008200087F96020ADF800000120ADF80C40ADF86C
:10083000020028686946B0FBF6F0401E000A0290EC
:10084000384626F0F5F80821384626F021F96946A1
:10085000384626F023F90821384626F05FF90121B1
:10086000384625F0D5FF0BB0F0BD0000000802406F
:1008700000040040DC0800202DE9F04188B00F465C
:10088000164614216846FCF7B0F900252048059566
:100890000695079504681F48844201D14FEA9404E5
:1008A000B4FBF7F0A0F10100069003D14FF0040073
:1008B000ADF81400DFF86080ADF81C50ADF81650AC
:1008C00005A9404626F034F96020ADF8000001206B
:1008D000ADF80200B4FBF7F0401E7043000A02902E
:1008E000ADF80C506946404626F0A2F80821404673
:1008F00026F0CEF86946404626F0D0F8082140465A
:1009000026F00CF90548067008B0BDE8F08100003B
:10091000DC080020007A030A000400404E08002092
:1009200070B50E480178002916D04188B1F5FF7FD7
:1009300001D2491D00E00021084D41802D1D88B2E3
:100940002C784FF47A71FF2801D3C0F5FF70C2B242
:100950000120FFF791FF2C7070BD00004A080020B5
:100960000EB5002002A9CDE9000103460A22014686
:1009700020F0CEFC0EBD00002DE9F04FFE4C8BB0F8
:10098000E089E081A07AA072607A00287ED00027FA
:100990006772A069401CA061207A20B1401E10F04F
:1009A000FF00207224D0684626F050FA2C226946B7
:1009B000F248FCF7BEF8F148EF4A4FF00109017D1B
:1009C0002032A1F5FA61117001690B46491C517082
:1009D000017B9170017AD1700179117101685171B7
:1009E000E289914216D0E181217801290CD019E0E9
:1009F000BFF34F8FE2480168E24A01F4E06111431E
:100A00000160BFF34F8FFEE7A17A09B1491E08E0EC
:100A1000277007E0A17A0A2902D384F8009001E048
:100A2000491CA1728246E07983420FD000200BF06E
:100A300023F99AF81000E071012022F059FAE179C7
:100A4000052023F005FA002022F052FACE4D2B6843
:100A500093F82800012853D1DAF808204FF4616197
:100A60004A43DAF80410DAF80000C1EB011102EB96
:100A700081010E18988C4FF46162010A11FB02F19A
:100A8000C0B2C0EB001001EB800000E0BBE1301A07
:100A900001D001280DD1E07858B937F0DBFF40B91B
:100AA00000200BF03FF90121084638F0ADF984F839
:100AB00003902868C18C4FF461600A0A12FB00F0B1
:100AC000C9B2C1EB011100EB8100301A01D001283D
:100AD00011D1E07801280ED137F0BCFF58B137F0C2
:100AE000B9FF032807D801200BF01CF901210020D1
:100AF00038F08AF9E77037F0ADFF90B184F80390D1
:100B000000201DF03DF8DFF87082064608F1140859
:100B1000002508F1080B00BF18F80500012871D165
:100B200001E0E770ECE7DAF814107161DAF8101000
:100B30003161DAF80C00F0608F48263030F815107B
:100B4000090AB16010F815003146C6E900708B48FB
:100B500004F054F825B1012D23D0022D43D051E0EB
:100B6000032804D29BF8001011F0010F08D00328CD
:100B700048DB9BF8001021F001018BF8001041E0E8
:100B800041F001008BF8000037F064FF50BB0022F9
:100B90007E49012001F01CF87D48018841F00101E7
:100BA0001FE0411D04D39BF8012012F0010F08D073
:100BB000002827DD9BF8011021F001018BF80110BE
:100BC00020E042F001008BF8010037F043FF48B904
:100BD00000226E49012000F0FBFF6D48018841F0C2
:100BE000020101800EE0411D04D39BF8022012F0A7
:100BF000010F3DD0002805DD9BF8021021F0010116
:100C00008BF802106D1CEDB2042D85D3DFF868B1AE
:100C100000250BF1100BABF1050800BF18F805001B
:100C200000287DD03BF8151058460A0A172A77D8B5
:100C3000C9B23B2974D8DAF814207261DAF81020AE
:100C40003261DAF80C10F16030F81510090AB16061
:100C50001BF815003146C6E90070484803F0CEFF86
:100C6000009018F80500012814D002281DD062E079
:100C700042F001008BF8020037F0ECFE0028C1D1F1
:100C800000224249012000F0A3FF4148018841F0C1
:100C90000401A6E7009800284DDB03284BDCA1786F
:100CA00009FA05F0084233D045E0009810F5B46F1A
:100CB00041DB384988420BDCA27809FA05F0104282
:100CC00003D135480078012822D00098884232DBD1
:100CD000324988420DDCA27809FA05F0104205D1AC
:100CE0002D480078012813D0022811D0009888429E
:100CF00021DB0028D1DCA17809FA05F00842C9D12E
:100D000025480078012803D0022801D00328C1D14A
:100D1000A17809FA05F00143A1706179084300E068
:100D20004BE06071FFF7F2FB0128134800F130003F
:100D300040F8257017D000985A2814DB18F80500E1
:100D4000022802D0012804D008E00098B0F5B46F62
:100D500004DBA17809FA05F08143A170617909FAF1
:100D600005F081436171627909FA05F0104224D0DF
:100D700018F80510022913E054080020DCD00020E8
:100D80000CED00E00400FA050008002068A6040845
:100D90005206002040FCFFFF8606002020FEFFFFD9
:100DA0000BD11A4951F825305B1C41F825305A2BDC
:100DB00003D38243627141F825706D1CEDB2022DA0
:100DC000FFF42CAFFFF7A2FB01280BD0607950B1E4
:100DD0005A220F49012000F0FBFE37F04DF984F84C
:100DE000069009E06771A079012805D1002211461B
:100DF000104600F0EDFEA7710BB03146BDE8F04F94
:100E000000201CF075BE0BB0BDE8F08F84080020F8
:100E100018A5040870B50546401E88B00C46022887
:100E20005FD2012022F064F84FF00046012D02D07D
:100E3000022D18D034E04FF480750021284622F0AE
:100E40001FFD0196E0788DF8000020798DF80100F3
:100E500060798DF802006A462946002022F06EFE75
:100E60000121080316E04FF400750021284622F006
:100E700007FD0196E0788DF8000020798DF80100DB
:100E800060798DF802006A462946002022F056FE5D
:100E90000121480322F000FE0121284622F0F0FC47
:100EA000002022F025F84FF40034204605F0EEF83B
:100EB000049400248DF8144008208DF815000125B5
:100EC0008DF8165004A805F0F1F829208DF81800C7
:100ED0008DF819408DF81A408DF81B5006A81FF0A8
:100EE000ADF908B070BD70B5012196B0080722F0C9
:100EF000E9FB012021F0FCFF012022F077FC4120DA
:100F000022F05AFC0028FAD04FF4807022F082FCC4
:100F1000012022F079FC22F035FF7F201390FF2082
:100F200000241490129412A822F0D6FD40F2E27030
:100F30000C90062002250A26CDE90A50CDE9084684
:100F40001C220BA907946846FBF7F3FD21462B46AC
:100F50003246084625F0A8FF012021F0C9FF4AF2D9
:100F6000A551002022F074FF002021F0C1FF0020D5
:100F700021F0BEFF16B070BD2DE9F04788B000200B
:100F80001CF0FEFD00F18005002304461A462946A8
:100F9000184600F055FA95E80E00A869CDE903104F
:100FA000CDE90132E8680090D5E90432ACA12046D1
:100FB0005B1CFBF773FA2046FBF709FD81B2204664
:100FC00004F01CFCDFF8C48200264FF6FF7700BF58
:100FD00038F81600B84205D1721CADA12046FBF7C7
:100FE0005DFA07E0C1B2030A0091721CACA1204671
:100FF000FBF754FA2046FBF7EAFC81B2204604F0E6
:10100000FDFB761CF6B2022EE2D34FF0000902A9D6
:10101000CDE9009164234A464946484620F078F9D4
:1010200004F0BCFBA4A12046FBF738FA2046FBF7EE
:10103000CEFC81B2204604F0E1FB002605A906A8FB
:1010400004F076FBBDF8140001280FD19DF81800BC
:101050001B286FD00D2809D0302807D3392805D890
:101060003038A055761CF6B20E2EE7D3F6B30E2E0E
:10107000D8D12178E07801EB4102C2EBC11100EB3D
:10108000C1006178642211FB02F1A27802EB8202B6
:1010900001EB420142186A612179607901EB81011B
:1010A00000EB41002861A379E17903EB830301EBB5
:1010B0004301E960267A637A06EB860603EB460C69
:1010C000C5F808C0A67AE37A06EB860603EB460667
:1010D0006E6094F80C80637B924608EB880803EB03
:1010E0004803A2F5FA622B60242A00E019E099D2A5
:1010F00001281BD0032819D0052817D0072815D0A0
:10110000082813D00A2811D00C280FD0042812D098
:10111000062810D009280ED00B280CD002280ED09B
:1011200014E09DF818000D28A2D12BE0491E1F29BC
:10113000DDD20BE08DE0491E1E29D8D206E05FEA21
:101140008A70A1F1010134D01C29D0D2BCF1170F53
:101150003FF768AF3B2EFBDC3B2BF9DC2869002313
:10116000401E28611A462946184600F047FA59A140
:101170002046FBF793F92046FBF729FC81B2204675
:1011800004F03CFB04F00AFB57A12046FBF786F96C
:101190002046FBF71CFC81B2204604F02FFB002602
:1011A00005A906A804F0C4FABDF81400012803D06C
:1011B00013E01D299BD2C9E79DF818001B2848D0D1
:1011C0000D280AD0302808D3392806D83038A05541
:1011D000761CF6B2042EE3D300E0F6B1042ED3D190
:1011E0002178607801EB810100EB4100A860A278D2
:1011F000E17802EB820201EB42016960172801DC11
:101200003B2910DDADF8149084F80090224605A922
:10121000012000F077F93AA111E09DF818000D289F
:10122000B2D13CA10BE007EA00200844ADF814005D
:1012300001202070224605A900F064F93AA1204659
:10124000FBF72CF92046FBF7C2FB81B2204604F0E5
:10125000D5FA214600201CF04BFC08B0BDE8F08711
:1012600054696D65203A20253034642D2530326470
:101270002D2530326420253032643A253032643AEC
:1012800025303264282564290D0A000064080020F6
:10129000416C61726D25643A204E430D0A000000D6
:1012A000416C61726D25643A20253032643A2530F4
:1012B00032640D0A000000005365742054696D65A6
:1012C0003A2059594D4D444468686D6D73730D0A49
:1012D000000000000D0A5365742054696D65204FAD
:1012E0004B210D0A0000000053657420416C6172AF
:1012F0006D2054696D653A2068686D6D0D0A0000B7
:1013000053657420416C61726D20455252210D0A63
:101310000000000053657420416C61726D204361D0
:101320006E63656C210D0A0053657420416C617217
:101330006D204F4B210D0A00014880697047000065
:10134000540800202DE9F0412C4D8CB06E1F2888E8
:101350002880A5F1100430783070A07804F11408CA
:10136000A07098F8001004F1260788F8001038885B
:101370003880E078E0702079207160796071A07920
:10138000A071E079E071002022F0CEFBA0F52541AC
:10139000A53903D0FFF7A7FD0120607000F0B8F970
:1013A000684625F053FD2C2269461548FBF7C1FB22
:1013B00014490020D1F8001001EB4002928925F871
:1013C00010200A18927C3254401CC0B20228F3D379
:1013D000002042460B1893F82C30135401EB4003C5
:1013E0001B8E27F81030401CC0B20428F2D3052011
:1013F00022F09AFBE0710CB0BDE8F0816408002097
:10140000DCD0002000080020431E022B0ED229B1A0
:10141000074B03EB400333F8023C0B80002A05D056
:101420000349491F084410F8010C10707047000070
:1014300064080020014909790170704754080020B0
:10144000F0B5264C93B01D4616460F46E8B12178FC
:1014500049000171627801EBD201017161784901A3
:10146000C170A2781144C170E178C90081702279FD
:1014700001EBD2018170217949014170627901EB60
:10148000520141706179C90101703FB1684625F090
:10149000DDFC2C2269463846FBF74BFB6EB107A8F2
:1014A00025F0D4FC1C220BA96846FBF742FB07AFD2
:1014B00097E80F0003F073FC30605DB1207828706E
:1014C00060786870A078A870E078E870207928715A
:1014D0006079687113B00020F0BD0000740800202E
:1014E000431E042B0BD2064B034413F8013C0B7034
:1014F0000349123101EB400030F8020C10807047B4
:10150000680800202DE9F0410446401E16460F46AB
:1015100002282AD200201CF033FB05460022014697
:1015200010461CF063FC4FB105EB4401388848813C
:101530000F49388801EB440121F8020C46B1291902
:10154000307848740A493078491F214401F8010C69
:101550000022294601201CF049FC294600201CF0ED
:10156000C7FA0349002010398870BDE8F0810000F7
:10157000640800202DE9F041074615460E4600207C
:101580001CF0FEFA04460022014610461CF02EFC18
:1015900084F82870A684E5840022214601201CF0EE
:1015A00025FC214600201CF0A3FA0548006890F8AD
:1015B0002800002802D103490120C870BDE8F0814D
:1015C000000800205408002070B5044600201CF0DC
:1015D000D7FA05460022014610461CF007FC6C7441
:1015E0000022294601201CF001FC294600201CF0A5
:1015F0007FFA0148047170BD540800202DE9F043C2
:101600008046002693B01D461746894630461CF09A
:10161000B7FA0446B8F1000005D002462146022080
:1016200003F050FB07E0B9F100000DD001462C2279
:101630002046FBF77EFA1C2204F110016846FBF7F6
:1016400078FA94E80F0029E067B107A8396803F039
:10165000B2FB1C220BA96846FBF76BFA07AD95E8B5
:101660000F001BE0EDB128781C2200F5FA606061E4
:10167000687804F11001401E2061A878E06081467E
:10168000E878A0602F79676080466D7968462560AC
:10169000FBF74FFA4B4642463946284625F004FCF4
:1016A00000E00126214600201CF022FA13B030464B
:1016B000BDE8F0832DE9F0410446401E16460F4672
:1016C000042821D200201CF05BFA054600220146C6
:1016D00010461CF08BFB2819002280F82B7005EBBC
:1016E00044002946C68501201CF080FB29460020C5
:1016F0001CF0FEF90548204400F8017C0348123034
:1017000000EB440020F8026CBDE8F081680800207E
:10171000FEB5012021F0ECFB4FF48005284604F0D3
:10172000B5FC00248DF8044008208DF80500012642
:1017300000958DF80660684604F0B8FC03208DF82B
:1017400008008DF809408DF80A408DF80B6002A85A
:101750001EF074FD002022F04FFB042022F038FB25
:10176000002022F0DBFA2C12204622F0FBF828465B
:1017700004F08CFC0121204622F08EF9012022F099
:101780003BFB002021F0B4FBFEBD00000249012814
:1017900000D0002008707047A40800201CB5154830
:1017A000017801291BD18178491CC9B281700A29AD
:1017B00015D30021817008461CF0E2F9044601A906
:1017C000684600F0DBF858B10BA12046FAF766FE38
:1017D000204604F06DF8214600201CF089F91CBD5C
:1017E000BDF80430BDF900200AA12046FAF756FEE4
:1017F000EEE70000A408002044656275674F757429
:101800003A2054656D7048756D692D4552520D0A28
:101810000000000044656275674F75743A20546596
:101820006D702D256428302E31E5BAA62920487523
:101830006D692D25640D0A0070B58AB00220FEF78F
:10184000BFFC01210220FEF71FFD002408A8CDE9FE
:10185000004023460222214620461FF059FD4FF446
:10186000E1610220FEF710FD08A8CDE90040002349
:101870000222194618461FF04BFD0121022021F0DB
:1018800009FF0121480521F01DFF384E04220721E0
:10189000304605F0A4FE04220621304605F09FFEE6
:1018A0008DF80D4002208DF80C00012540208DF8A8
:1018B0000E5002908DF80F4002A9304605F03EFE12
:1018C0008020029002A9304605F038FE284E3046AE
:1018D00015F018FE0021304615F00AFEADF8144050
:1018E0004BF6FF70ADF81600A802ADF81A00000123
:1018F000ADF81C001F4804900121304615F0F8FD9A
:1019000004A9304615F04AFE8DF8004001226946D0
:101910000C2025F04BF99DF80010174E55291DD1CC
:10192000E0B900226946322025F004FA8DF8004023
:10193000012269460C2025F039F99DF80010AA29EA
:101940000CD158B98DF80040012269460C2025F0D1
:101950002DF99DF80010552900D118B1757001209E
:101960000AB070BD75700020FAE700000004024064
:1019700000540040801A0600A40800207FB50446E9
:101980001C480D46407890B372208DF80800012263
:1019900002A9312025F0CEF9002003A9CDE90001EC
:1019A0000A23024601461FF0B3FC002202A931209F
:1019B00025F0C0F9042202A9102025F0F7F800282C
:1019C00013D1BDF8080043F6095148430A49B0FB5A
:1019D000F1F08C382880BDF80A000A214000B0FBE5
:1019E000F1F0A0F5E3702080002004B070BDFFE7A7
:1019F0000120FAE7A4080020A0860100024901287E
:101A000000D0002008707047B008002001488068AE
:101A1000704700001C0800202DE9F0416A4C0020AE
:101A2000274694F801C0B978FB784A1CD6B2BA6848
:101A30000546BCF1050F6ED2DFE80CF0030812B5C5
:101A4000BB002078012867D0BDE8F081002A74D05F
:101A5000012000F015F902206070E580E560F3E7F1
:101A6000DFF868C1E768674501D27F1CE7609942EB
:101A70006FD3A570E188535C0B3B1B2B4FD2DFE883
:101A800003F00E1114171A1D204E4E4E2326292C3A
:101A90002F32354E4E4E383B3E4144474C004FF4BA
:101AA00083703CE04FF4937039E04FF4A57036E05A
:101AB00040F25D1033E04FF4C47030E04FF4DC705E
:101AC0002DE04FF4F7702AE040F20B2027E040F2BF
